{
  "contractName": "BiteChain",
  "abi": [
    {
      "inputs": [],
      "payable": false,
      "stateMutability": "nonpayable",
      "type": "constructor",
      "signature": "constructor"
    },
    {
      "payable": true,
      "stateMutability": "payable",
      "type": "fallback"
    },
    {
      "constant": false,
      "inputs": [
        {
          "name": "x",
          "type": "uint256"
        }
      ],
      "name": "set",
      "outputs": [],
      "payable": false,
      "stateMutability": "nonpayable",
      "type": "function",
      "signature": "0x60fe47b1"
    },
    {
      "constant": true,
      "inputs": [],
      "name": "get",
      "outputs": [
        {
          "name": "",
          "type": "uint256"
        }
      ],
      "payable": false,
      "stateMutability": "view",
      "type": "function",
      "signature": "0x6d4ce63c"
    },
    {
      "constant": true,
      "inputs": [],
      "name": "getMenuLength",
      "outputs": [
        {
          "name": "",
          "type": "uint256"
        }
      ],
      "payable": false,
      "stateMutability": "view",
      "type": "function",
      "signature": "0x125ba977"
    },
    {
      "constant": true,
      "inputs": [
        {
          "name": "index",
          "type": "uint256"
        }
      ],
      "name": "getMenu",
      "outputs": [
        {
          "name": "",
          "type": "string"
        },
        {
          "name": "",
          "type": "uint256"
        }
      ],
      "payable": false,
      "stateMutability": "view",
      "type": "function",
      "signature": "0x842bb5b2"
    },
    {
      "constant": false,
      "inputs": [
        {
          "name": "table",
          "type": "uint256"
        },
        {
          "name": "qty0",
          "type": "uint256"
        },
        {
          "name": "qty1",
          "type": "uint256"
        },
        {
          "name": "qty2",
          "type": "uint256"
        }
      ],
      "name": "customerSubmitOrder",
      "outputs": [
        {
          "name": "orderID",
          "type": "uint256"
        }
      ],
      "payable": true,
      "stateMutability": "payable",
      "type": "function",
      "signature": "0x95af73a2"
    },
    {
      "constant": true,
      "inputs": [
        {
          "name": "relativeID",
          "type": "uint256"
        }
      ],
      "name": "customerGetOpenOrders",
      "outputs": [
        {
          "name": "ID",
          "type": "uint256"
        },
        {
          "name": "qty",
          "type": "uint256"
        }
      ],
      "payable": false,
      "stateMutability": "view",
      "type": "function",
      "signature": "0x8fa37437"
    },
    {
      "constant": false,
      "inputs": [
        {
          "name": "orderID",
          "type": "uint256"
        }
      ],
      "name": "waiterApprove",
      "outputs": [],
      "payable": false,
      "stateMutability": "nonpayable",
      "type": "function",
      "signature": "0x140696b8"
    },
    {
      "constant": false,
      "inputs": [
        {
          "name": "orderID",
          "type": "uint256"
        }
      ],
      "name": "cookStart",
      "outputs": [],
      "payable": false,
      "stateMutability": "nonpayable",
      "type": "function",
      "signature": "0xe0ea38ad"
    },
    {
      "constant": false,
      "inputs": [
        {
          "name": "orderID",
          "type": "uint256"
        }
      ],
      "name": "cookFinish",
      "outputs": [],
      "payable": false,
      "stateMutability": "nonpayable",
      "type": "function",
      "signature": "0x2bc4acea"
    },
    {
      "constant": false,
      "inputs": [
        {
          "name": "orderID",
          "type": "uint256"
        }
      ],
      "name": "waiterDeliver",
      "outputs": [],
      "payable": false,
      "stateMutability": "nonpayable",
      "type": "function",
      "signature": "0x58220148"
    },
    {
      "constant": true,
      "inputs": [
        {
          "name": "orderID",
          "type": "uint256"
        }
      ],
      "name": "getOrderStatus",
      "outputs": [
        {
          "name": "state",
          "type": "uint256"
        }
      ],
      "payable": false,
      "stateMutability": "view",
      "type": "function",
      "signature": "0x45fa8aae"
    },
    {
      "constant": true,
      "inputs": [
        {
          "name": "relIndex",
          "type": "uint256"
        }
      ],
      "name": "getOpenOrders",
      "outputs": [
        {
          "name": "ID",
          "type": "uint256"
        },
        {
          "name": "qty",
          "type": "uint256"
        }
      ],
      "payable": false,
      "stateMutability": "view",
      "type": "function",
      "signature": "0x50710c97"
    },
    {
      "constant": false,
      "inputs": [
        {
          "name": "ownerAddress",
          "type": "address"
        }
      ],
      "name": "addOwner",
      "outputs": [
        {
          "name": "",
          "type": "bool"
        }
      ],
      "payable": false,
      "stateMutability": "nonpayable",
      "type": "function",
      "signature": "0x7065cb48"
    },
    {
      "constant": false,
      "inputs": [
        {
          "name": "waiterAddress",
          "type": "address"
        }
      ],
      "name": "addWaiter",
      "outputs": [
        {
          "name": "success",
          "type": "bool"
        }
      ],
      "payable": false,
      "stateMutability": "nonpayable",
      "type": "function",
      "signature": "0x8156a01c"
    },
    {
      "constant": false,
      "inputs": [
        {
          "name": "cookAddress",
          "type": "address"
        }
      ],
      "name": "addCook",
      "outputs": [
        {
          "name": "success",
          "type": "bool"
        }
      ],
      "payable": false,
      "stateMutability": "nonpayable",
      "type": "function",
      "signature": "0x088ed5b5"
    },
    {
      "constant": false,
      "inputs": [
        {
          "name": "ownerAddress",
          "type": "address"
        }
      ],
      "name": "removeOwner",
      "outputs": [
        {
          "name": "success",
          "type": "bool"
        }
      ],
      "payable": false,
      "stateMutability": "nonpayable",
      "type": "function",
      "signature": "0x173825d9"
    },
    {
      "constant": false,
      "inputs": [
        {
          "name": "waiterAddress",
          "type": "address"
        }
      ],
      "name": "removeWaiter",
      "outputs": [
        {
          "name": "success",
          "type": "bool"
        }
      ],
      "payable": false,
      "stateMutability": "nonpayable",
      "type": "function",
      "signature": "0x9d61a714"
    },
    {
      "constant": false,
      "inputs": [
        {
          "name": "cookAddress",
          "type": "address"
        }
      ],
      "name": "removeCook",
      "outputs": [
        {
          "name": "success",
          "type": "bool"
        }
      ],
      "payable": false,
      "stateMutability": "nonpayable",
      "type": "function",
      "signature": "0x268cfbaf"
    },
    {
      "constant": true,
      "inputs": [
        {
          "name": "queryAddress",
          "type": "address"
        }
      ],
      "name": "getWaiter",
      "outputs": [
        {
          "name": "success",
          "type": "bool"
        }
      ],
      "payable": false,
      "stateMutability": "view",
      "type": "function",
      "signature": "0xf3e796ac"
    },
    {
      "constant": true,
      "inputs": [
        {
          "name": "queryAddress",
          "type": "address"
        }
      ],
      "name": "getCook",
      "outputs": [
        {
          "name": "success",
          "type": "bool"
        }
      ],
      "payable": false,
      "stateMutability": "view",
      "type": "function",
      "signature": "0x6195ef45"
    },
    {
      "constant": true,
      "inputs": [
        {
          "name": "queryAddress",
          "type": "address"
        }
      ],
      "name": "getOwner",
      "outputs": [
        {
          "name": "success",
          "type": "bool"
        }
      ],
      "payable": false,
      "stateMutability": "view",
      "type": "function",
      "signature": "0xfa544161"
    },
    {
      "constant": false,
      "inputs": [
        {
          "name": "withdrawAmount",
          "type": "uint256"
        }
      ],
      "name": "withdraw",
      "outputs": [],
      "payable": false,
      "stateMutability": "nonpayable",
      "type": "function",
      "signature": "0x2e1a7d4d"
    }
  ],
  "bytecode": "0x60806040523480156200001157600080fd5b506001600460003373ffffffffffffffffffffffffffffffffffffffff1673ffffffffffffffffffffffffffffffffffffffff16815260200190815260200160002060006101000a81548160ff0219169083151502179055506001600560003373ffffffffffffffffffffffffffffffffffffffff1673ffffffffffffffffffffffffffffffffffffffff16815260200190815260200160002060006101000a81548160ff0219169083151502179055506001600660003373ffffffffffffffffffffffffffffffffffffffff1673ffffffffffffffffffffffffffffffffffffffff16815260200190815260200160002060006101000a81548160ff02191690831515021790555033600160006101000a81548173ffffffffffffffffffffffffffffffffffffffff021916908373ffffffffffffffffffffffffffffffffffffffff160217905550600760408051908101604052806040805190810160405280600881526020017f53616e647769636800000000000000000000000000000000000000000000000081525081526020016001815250908060018154018082558091505090600182039060005260206000209060020201600090919290919091506000820151816000019080519060200190620001f19291906200034d565b5060208201518160010155505050600760408051908101604052806040805190810160405280600481526020017f5461636f0000000000000000000000000000000000000000000000000000000081525081526020016003815250908060018154018082558091505090600182039060005260206000209060020201600090919290919091506000820151816000019080519060200190620002959291906200034d565b5060208201518160010155505050600760408051908101604052806040805190810160405280600781526020017f436869636b656e0000000000000000000000000000000000000000000000000081525081526020016002815250908060018154018082558091505090600182039060005260206000209060020201600090919290919091506000820151816000019080519060200190620003399291906200034d565b5060208201518160010155505050620003fc565b828054600181600116156101000203166002900490600052602060002090601f016020900481019282601f106200039057805160ff1916838001178555620003c1565b82800160010185558215620003c1579182015b82811115620003c0578251825591602001919060010190620003a3565b5b509050620003d09190620003d4565b5090565b620003f991905b80821115620003f5576000816000905550600101620003db565b5090565b90565b612684806200040c6000396000f3fe608060405260043610610128576000357c0100000000000000000000000000000000000000000000000000000000900463ffffffff168063088ed5b51461012a578063125ba97714610193578063140696b8146101be578063173825d9146101f9578063268cfbaf146102625780632bc4acea146102cb5780632e1a7d4d1461030657806345fa8aae1461034157806350710c971461039057806358220148146103e657806360fe47b1146104215780636195ef451461045c5780636d4ce63c146104c55780637065cb48146104f05780638156a01c14610559578063842bb5b2146105c25780638fa374371461067d57806395af73a2146106d35780639d61a71414610733578063e0ea38ad1461079c578063f3e796ac146107d7578063fa54416114610840575b005b34801561013657600080fd5b506101796004803603602081101561014d57600080fd5b81019080803573ffffffffffffffffffffffffffffffffffffffff1690602001909291905050506108a9565b604051808215151515815260200191505060405180910390f35b34801561019f57600080fd5b506101a861090c565b6040518082815260200191505060405180910390f35b3480156101ca57600080fd5b506101f7600480360360208110156101e157600080fd5b8101908080359060200190929190505050610919565b005b34801561020557600080fd5b506102486004803603602081101561021c57600080fd5b81019080803573ffffffffffffffffffffffffffffffffffffffff169060200190929190505050610b83565b604051808215151515815260200191505060405180910390f35b34801561026e57600080fd5b506102b16004803603602081101561028557600080fd5b81019080803573ffffffffffffffffffffffffffffffffffffffff169060200190929190505050610be5565b604051808215151515815260200191505060405180910390f35b3480156102d757600080fd5b50610304600480360360208110156102ee57600080fd5b8101908080359060200190929190505050610c47565b005b34801561031257600080fd5b5061033f6004803603602081101561032957600080fd5b8101908080359060200190929190505050610eb1565b005b34801561034d57600080fd5b5061037a6004803603602081101561036457600080fd5b81019080803590602001909291905050506110d0565b6040518082815260200191505060405180910390f35b34801561039c57600080fd5b506103c9600480360360208110156103b357600080fd5b8101908080359060200190929190505050611248565b604051808381526020018281526020019250505060405180910390f35b3480156103f257600080fd5b5061041f6004803603602081101561040957600080fd5b81019080803590602001909291905050506112f0565b005b34801561042d57600080fd5b5061045a6004803603602081101561044457600080fd5b810190808035906020019092919050505061182b565b005b34801561046857600080fd5b506104ab6004803603602081101561047f57600080fd5b81019080803573ffffffffffffffffffffffffffffffffffffffff169060200190929190505050611835565b604051808215151515815260200191505060405180910390f35b3480156104d157600080fd5b506104da61188b565b6040518082815260200191505060405180910390f35b3480156104fc57600080fd5b5061053f6004803603602081101561051357600080fd5b81019080803573ffffffffffffffffffffffffffffffffffffffff169060200190929190505050611894565b604051808215151515815260200191505060405180910390f35b34801561056557600080fd5b506105a86004803603602081101561057c57600080fd5b81019080803573ffffffffffffffffffffffffffffffffffffffff169060200190929190505050611a17565b604051808215151515815260200191505060405180910390f35b3480156105ce57600080fd5b506105fb600480360360208110156105e557600080fd5b8101908080359060200190929190505050611a7a565b6040518080602001838152602001828103825284818151815260200191508051906020019080838360005b83811015610641578082015181840152602081019050610626565b50505050905090810190601f16801561066e5780820380516001836020036101000a031916815260200191505b50935050505060405180910390f35b34801561068957600080fd5b506106b6600480360360208110156106a057600080fd5b8101908080359060200190929190505050611b64565b604051808381526020018281526020019250505060405180910390f35b61071d600480360360808110156106e957600080fd5b8101908080359060200190929190803590602001909291908035906020019092919080359060200190929190505050611cc5565b6040518082815260200191505060405180910390f35b34801561073f57600080fd5b506107826004803603602081101561075657600080fd5b81019080803573ffffffffffffffffffffffffffffffffffffffff169060200190929190505050612174565b604051808215151515815260200191505060405180910390f35b3480156107a857600080fd5b506107d5600480360360208110156107bf57600080fd5b81019080803590602001909291905050506121d6565b005b3480156107e357600080fd5b50610826600480360360208110156107fa57600080fd5b81019080803573ffffffffffffffffffffffffffffffffffffffff169060200190929190505050612440565b604051808215151515815260200191505060405180910390f35b34801561084c57600080fd5b5061088f6004803603602081101561086357600080fd5b81019080803573ffffffffffffffffffffffffffffffffffffffff169060200190929190505050612496565b604051808215151515815260200191505060405180910390f35b60006001600560008473ffffffffffffffffffffffffffffffffffffffff1673ffffffffffffffffffffffffffffffffffffffff16815260200190815260200160002060006101000a81548160ff02191690831515021790555060019050919050565b6000600780549050905090565b60011515600660003373ffffffffffffffffffffffffffffffffffffffff1673ffffffffffffffffffffffffffffffffffffffff16815260200190815260200160002060009054906101000a900460ff1615151415156109e1576040517f08c379a000000000000000000000000000000000000000000000000000000000815260040180806020018281038252601f8152602001807f4f6e6c7920616e20776169746572732063616e206d6f6469667920746869730081525060200191505060405180910390fd5b60088054905081101515610a5d576040517f08c379a000000000000000000000000000000000000000000000000000000000815260040180806020018281038252600e8152602001807f494420697320696e76616c69642e00000000000000000000000000000000000081525060200191505060405180910390fd5b60006004811115610a6a57fe5b600882815481101515610a7957fe5b90600052602060002090600b0201600a0160009054906101000a900460ff166004811115610aa357fe5b141515610b3e576040517f08c379a00000000000000000000000000000000000000000000000000000000081526004018080602001828103825260268152602001807f54686973206f72646572206973206e6f7420696e20746865206f72646572656481526020017f207374617465000000000000000000000000000000000000000000000000000081525060400191505060405180910390fd5b6001600882815481101515610b4f57fe5b90600052602060002090600b0201600a0160006101000a81548160ff02191690836004811115610b7b57fe5b021790555050565b600080600460008473ffffffffffffffffffffffffffffffffffffffff1673ffffffffffffffffffffffffffffffffffffffff16815260200190815260200160002060006101000a81548160ff02191690831515021790555060019050919050565b600080600560008473ffffffffffffffffffffffffffffffffffffffff1673ffffffffffffffffffffffffffffffffffffffff16815260200190815260200160002060006101000a81548160ff02191690831515021790555060019050919050565b60011515600560003373ffffffffffffffffffffffffffffffffffffffff1673ffffffffffffffffffffffffffffffffffffffff16815260200190815260200160002060009054906101000a900460ff161515141515610d0f576040517f08c379a000000000000000000000000000000000000000000000000000000000815260040180806020018281038252601a8152602001807f4f6e6c7920636f6f6b732063616e206d6f64696679207468697300000000000081525060200191505060405180910390fd5b60088054905081101515610d8b576040517f08c379a000000000000000000000000000000000000000000000000000000000815260040180806020018281038252600e8152602001807f494420697320696e76616c69642e00000000000000000000000000000000000081525060200191505060405180910390fd5b60026004811115610d9857fe5b600882815481101515610da757fe5b90600052602060002090600b0201600a0160009054906101000a900460ff166004811115610dd157fe5b141515610e6c576040517f08c379a00000000000000000000000000000000000000000000000000000000081526004018080602001828103825260268152602001807f54686973206f72646572206973206e6f7420696e20746865206f72646572656481526020017f207374617465000000000000000000000000000000000000000000000000000081525060400191505060405180910390fd5b6003600882815481101515610e7d57fe5b90600052602060002090600b0201600a0160006101000a81548160ff02191690836004811115610ea957fe5b021790555050565b60011515600460003373ffffffffffffffffffffffffffffffffffffffff1673ffffffffffffffffffffffffffffffffffffffff16815260200190815260200160002060009054906101000a900460ff1615151480610f5d5750600160009054906101000a900473ffffffffffffffffffffffffffffffffffffffff1673ffffffffffffffffffffffffffffffffffffffff163373ffffffffffffffffffffffffffffffffffffffff16145b1515610fd1576040517f08c379a000000000000000000000000000000000000000000000000000000000815260040180806020018281038252601d8152602001807f4f6e6c7920616e206f776e65722063616e206d6f64696679207468697300000081525060200191505060405180910390fd5b803073ffffffffffffffffffffffffffffffffffffffff163110151515611086576040517f08c379a000000000000000000000000000000000000000000000000000000000815260040180806020018281038252602a8152602001807f526571756573746564206d6f7265206d6f6e6579207468612074686520636f6e81526020017f7472616374206861732e0000000000000000000000000000000000000000000081525060400191505060405180910390fd5b3373ffffffffffffffffffffffffffffffffffffffff166108fc829081150290604051600060405180830381858888f193505050501580156110cc573d6000803e3d6000fd5b5050565b600080600360003373ffffffffffffffffffffffffffffffffffffffff1673ffffffffffffffffffffffffffffffffffffffff168152602001908152602001600020805490501415151561118c576040517f08c379a00000000000000000000000000000000000000000000000000000000081526004018080602001828103825260148152602001807f4e6f206f70656e206f726465727320666f756e6400000000000000000000000081525060200191505060405180910390fd5b60088054905082101515611208576040517f08c379a000000000000000000000000000000000000000000000000000000000815260040180806020018281038252600e8152602001807f494420697320696e76616c69642e00000000000000000000000000000000000081525060200191505060405180910390fd5b60088281548110151561121757fe5b90600052602060002090600b0201600a0160009054906101000a900460ff16600481111561124157fe5b9050919050565b600080600280549050831015156112c7576040517f08c379a000000000000000000000000000000000000000000000000000000000815260040180806020018281038252600e8152602001807f494420697320696e76616c69642e00000000000000000000000000000000000081525060200191505060405180910390fd5b6002838154811015156112d657fe5b906000526020600020015460028054905091509150915091565b60011515600660003373ffffffffffffffffffffffffffffffffffffffff1673ffffffffffffffffffffffffffffffffffffffff16815260200190815260200160002060009054906101000a900460ff1615151415156113b8576040517f08c379a000000000000000000000000000000000000000000000000000000000815260040180806020018281038252601f8152602001807f4f6e6c7920616e20776169746572732063616e206d6f6469667920746869730081525060200191505060405180910390fd5b60088054905081101515611434576040517f08c379a000000000000000000000000000000000000000000000000000000000815260040180806020018281038252600e8152602001807f494420697320696e76616c69642e00000000000000000000000000000000000081525060200191505060405180910390fd5b6003600481111561144157fe5b60088281548110151561145057fe5b90600052602060002090600b0201600a0160009054906101000a900460ff16600481111561147a57fe5b141515611515576040517f08c379a00000000000000000000000000000000000000000000000000000000081526004018080602001828103825260278152602001807f54686973206f72646572206973206e6f7420696e20746865206f72646572656481526020017f2073746174652e0000000000000000000000000000000000000000000000000081525060400191505060405180910390fd5b600460088281548110151561152657fe5b90600052602060002090600b0201600a0160006101000a81548160ff0219169083600481111561155257fe5b0217905550600060088281548110151561156857fe5b90600052602060002090600b020160000160009054906101000a900473ffffffffffffffffffffffffffffffffffffffff16905060006008838154811015156115ad57fe5b90600052602060002090600b020160080154905060006001600360008573ffffffffffffffffffffffffffffffffffffffff1673ffffffffffffffffffffffffffffffffffffffff16815260200190815260200160002080549050039050818114151561174757600360008473ffffffffffffffffffffffffffffffffffffffff1673ffffffffffffffffffffffffffffffffffffffff1681526020019081526020016000208281548110151561166057fe5b9060005260206000200154600360008573ffffffffffffffffffffffffffffffffffffffff1673ffffffffffffffffffffffffffffffffffffffff168152602001908152602001600020838154811015156116b757fe5b90600052602060002001819055506000600360008573ffffffffffffffffffffffffffffffffffffffff1673ffffffffffffffffffffffffffffffffffffffff1681526020019081526020016000208381548110151561171357fe5b906000526020600020015490508260088281548110151561173057fe5b90600052602060002090600b020160080181905550505b600360008473ffffffffffffffffffffffffffffffffffffffff1673ffffffffffffffffffffffffffffffffffffffff16815260200190815260200160002080548091906001900361179991906124ec565b5060006008858154811015156117ab57fe5b90600052602060002090600b020160090154905060006001600280549050039050808214151561180d576002818154811015156117e457fe5b90600052602060002001546002838154811015156117fe57fe5b90600052602060002001819055505b600280548091906001900361182291906124ec565b50505050505050565b8060008190555050565b6000600560008373ffffffffffffffffffffffffffffffffffffffff1673ffffffffffffffffffffffffffffffffffffffff16815260200190815260200160002060009054906101000a900460ff169050919050565b60008054905090565b600060011515600460003373ffffffffffffffffffffffffffffffffffffffff1673ffffffffffffffffffffffffffffffffffffffff16815260200190815260200160002060009054906101000a900460ff16151514806119425750600160009054906101000a900473ffffffffffffffffffffffffffffffffffffffff1673ffffffffffffffffffffffffffffffffffffffff163373ffffffffffffffffffffffffffffffffffffffff16145b15156119b6576040517f08c379a000000000000000000000000000000000000000000000000000000000815260040180806020018281038252601d8152602001807f4f6e6c7920616e206f776e65722063616e206d6f64696679207468697300000081525060200191505060405180910390fd5b6001600460008473ffffffffffffffffffffffffffffffffffffffff1673ffffffffffffffffffffffffffffffffffffffff16815260200190815260200160002060006101000a81548160ff02191690831515021790555060019050919050565b60006001600660008473ffffffffffffffffffffffffffffffffffffffff1673ffffffffffffffffffffffffffffffffffffffff16815260200190815260200160002060006101000a81548160ff02191690831515021790555060019050919050565b60606000600783815481101515611a8d57fe5b9060005260206000209060020201600001600784815481101515611aad57fe5b906000526020600020906002020160010154818054600181600116156101000203166002900480601f016020809104026020016040519081016040528092919081815260200182805460018160011615610100020316600290048015611b545780601f10611b2957610100808354040283529160200191611b54565b820191906000526020600020905b815481529060010190602001808311611b3757829003601f168201915b5050505050915091509150915091565b6000806000600360003373ffffffffffffffffffffffffffffffffffffffff1673ffffffffffffffffffffffffffffffffffffffff1681526020019081526020016000208054905014151515611c22576040517f08c379a00000000000000000000000000000000000000000000000000000000081526004018080602001828103825260148152602001807f4e6f206f70656e206f726465727320666f756e6400000000000000000000000081525060200191505060405180910390fd5b600360003373ffffffffffffffffffffffffffffffffffffffff1673ffffffffffffffffffffffffffffffffffffffff16815260200190815260200160002083815481101515611c6e57fe5b9060005260206000200154600360003373ffffffffffffffffffffffffffffffffffffffff1673ffffffffffffffffffffffffffffffffffffffff1681526020019081526020016000208054905091509150915091565b6000611ccf612518565b60408051908101604052806000815260200186815250816000600381101515611cf457fe5b602002018190525060408051908101604052806001815260200185815250816001600381101515611d2157fe5b602002018190525060408051908101604052806002815260200184815250816002600381101515611d4e57fe5b6020020181905250600060076000815481101515611d6857fe5b906000526020600020906002020160010154826000600381101515611d8957fe5b60200201516001600281101515611d9c57fe5b602002015102905060076001815481101515611db457fe5b906000526020600020906002020160010154826001600381101515611dd557fe5b60200201516001600281101515611de857fe5b6020020151028101905060076002815481101515611e0257fe5b906000526020600020906002020160010154826002600381101515611e2357fe5b60200201516001600281101515611e3657fe5b60200201510281019050348111151515611eb8576040517f08c379a000000000000000000000000000000000000000000000000000000000815260040180806020018281038252600e8152602001807f5061696420746f6f206d7563682e00000000000000000000000000000000000081525060200191505060405180910390fd5b348110151515611f30576040517f08c379a00000000000000000000000000000000000000000000000000000000081526004018080602001828103825260108152602001807f5061696420746f6f206c6974746c652e0000000000000000000000000000000081525060200191505060405180910390fd5b6000600360003373ffffffffffffffffffffffffffffffffffffffff1673ffffffffffffffffffffffffffffffffffffffff168152602001908152602001600020805490509050600081141515611f8b578080600190039150505b60006002805490509050600081141515611fa9578080600190039150505b6001600860c0604051908101604052803373ffffffffffffffffffffffffffffffffffffffff1681526020018c815260200187815260200185815260200184815260200160006004811115611ffa57fe5b8152509080600181540180825580915050906001820390600052602060002090600b02016000909192909190915060008201518160000160006101000a81548173ffffffffffffffffffffffffffffffffffffffff021916908373ffffffffffffffffffffffffffffffffffffffff16021790555060208201518160010155604082015181600201906003612090929190612546565b50606082015181600801556080820151816009015560a082015181600a0160006101000a81548160ff021916908360048111156120c957fe5b021790555050500394506002859080600181540180825580915050906001820390600052602060002001600090919290919091505550600360003373ffffffffffffffffffffffffffffffffffffffff1673ffffffffffffffffffffffffffffffffffffffff16815260200190815260200160002085908060018154018082558091505090600182039060005260206000200160009091929091909150555050505050949350505050565b600080600660008473ffffffffffffffffffffffffffffffffffffffff1673ffffffffffffffffffffffffffffffffffffffff16815260200190815260200160002060006101000a81548160ff02191690831515021790555060019050919050565b60011515600560003373ffffffffffffffffffffffffffffffffffffffff1673ffffffffffffffffffffffffffffffffffffffff16815260200190815260200160002060009054906101000a900460ff16151514151561229e576040517f08c379a000000000000000000000000000000000000000000000000000000000815260040180806020018281038252601a8152602001807f4f6e6c7920636f6f6b732063616e206d6f64696679207468697300000000000081525060200191505060405180910390fd5b6008805490508110151561231a576040517f08c379a000000000000000000000000000000000000000000000000000000000815260040180806020018281038252600e8152602001807f494420697320696e76616c69642e00000000000000000000000000000000000081525060200191505060405180910390fd5b6001600481111561232757fe5b60088281548110151561233657fe5b90600052602060002090600b0201600a0160009054906101000a900460ff16600481111561236057fe5b1415156123fb576040517f08c379a00000000000000000000000000000000000000000000000000000000081526004018080602001828103825260268152602001807f54686973206f72646572206973206e6f7420696e20746865206f72646572656481526020017f207374617465000000000000000000000000000000000000000000000000000081525060400191505060405180910390fd5b600260088281548110151561240c57fe5b90600052602060002090600b0201600a0160006101000a81548160ff0219169083600481111561243857fe5b021790555050565b6000600660008373ffffffffffffffffffffffffffffffffffffffff1673ffffffffffffffffffffffffffffffffffffffff16815260200190815260200160002060009054906101000a900460ff169050919050565b6000600460008373ffffffffffffffffffffffffffffffffffffffff1673ffffffffffffffffffffffffffffffffffffffff16815260200190815260200160002060009054906101000a900460ff169050919050565b815481835581811115612513578183600052602060002091820191016125129190612597565b5b505050565b60c0604051908101604052806003905b6125306125bc565b8152602001906001900390816125285790505090565b8260036002028101928215612586579160200282015b82811115612585578251829060026125759291906125de565b509160200191906002019061255c565b5b509050612593919061261e565b5090565b6125b991905b808211156125b557600081600090555060010161259d565b5090565b90565b6040805190810160405280600290602082028038833980820191505090505090565b826002810192821561260d579160200282015b8281111561260c5782518255916020019190600101906125f1565b5b50905061261a9190612597565b5090565b61264791905b80821115612643576000818161263a919061264a565b50600201612624565b5090565b90565b50600081556001016000905556fea165627a7a723058203f4d2915c8fcc7d5bf6c680b6d7eb55f61976770142c4f5d15e742eb2a5ecff50029",
  "source": "pragma solidity ^0.5.0;\r\n\r\n/// @title A restaurant order managment system\r\n/// @author Nanoshi\r\n/// @notice You can use this contract for testing purposes only\r\n/// @dev All function calls are currently implement without side effects\r\ncontract BiteChain {\r\n\r\n    /*TEST temp data */\r\n    uint storedData;\r\n\r\n    /* State Variables */\r\n    address owner;\r\n    // Tracks open orders at a table\r\n    uint[] openOrders;\r\n    // Orders specific to a customer\r\n    mapping (address => uint[]) custOpenOrders;\r\n\r\n    // Tracking of owners, cooks and waiters\r\n    mapping (address => bool) owners;\r\n    mapping (address => bool) cooks;\r\n    mapping (address => bool) waiters;\r\n\r\n    // Menu stuct for holding items as cost\r\n    struct Menu {\r\n        string name;\r\n        uint cost;\r\n    }\r\n    Menu[] menu;\r\n\r\n    // Tracks the flow of orders as they progress\r\n    enum State { ordered, accpeted, cooking, ready, delivered }\r\n\r\n    // Holds all info of an order\r\n    // menuChoices is 2d array for item number and quantity\r\n    struct Order {\r\n        address customer;\r\n        uint tableID;\r\n        uint[2][3] menuChoices;\r\n        uint custRelID;\r\n        uint openRelID;\r\n        State state;\r\n    }\r\n    Order[] orders;\r\n\r\n    /* Modifiers */    \r\n    // Checks if the sender is an owner, cook, waiter or customer\r\n    // *The contractor is ALWAYS the owner, cannot be demoted*  \r\n    modifier isOwner(){\r\n        require(owners[msg.sender] == true || (msg.sender == owner), \"Only an owner can modify this\");\r\n        _;\r\n    }\r\n    modifier isCook(){\r\n        require(cooks[msg.sender] == true, \"Only cooks can modify this\");\r\n        _;\r\n    }\r\n    modifier isWaiter(){\r\n        require(waiters[msg.sender] == true, \"Only an waiters can modify this\");\r\n        _;\r\n    }\r\n    modifier isCustomer(){\r\n        require(custOpenOrders[msg.sender].length != 0, \"No open orders found\");\r\n        _;\r\n    }\r\n    \r\n    /* Initialize Contract */\r\n    constructor() public {\r\n        // Give initial control to contract owner\r\n        // Owner starts with all roles\r\n        owners[msg.sender] = true;\r\n        cooks[msg.sender] = true;\r\n        waiters[msg.sender] = true;\r\n        owner = msg.sender; // Backdoor in case you delete yourself\r\n\r\n        // Set up the menu\r\n        menu.push(Menu(\"Sandwich\",1));\r\n        menu.push(Menu(\"Taco\", 3));\r\n        menu.push(Menu(\"Chicken\",2));\r\n    }   \r\n\r\n    /*TEST temp data */\r\n    function set(uint x) public {\r\n        storedData = x;\r\n    }\r\n\r\n    function get() public view returns (uint) {\r\n        return storedData;\r\n    }\r\n\r\n\r\n    /// @notice Tells you how many items are on the menu\r\n    /// @return count of menu items\r\n    function getMenuLength() public view returns (uint){\r\n        return (menu.length);\r\n    }\r\n\r\n    /// @notice Get menu item info based on thier index (starting from 0)\r\n    /// @dev Look up by index rather than loops is more economical\r\n    /// @param index The index of the menu item to look up\r\n    /// @return name of item at the index requested\r\n    /// @return cost of the item at index requested\r\n    function getMenu(uint index) public view returns(string memory, uint) {\r\n        return (menu[index].name, menu[index].cost);   \r\n    }\r\n    \r\n    /// @notice Submit order with tablie ID and quantity of each item requested. Payable\r\n    /// @dev The order will be checked to ensure that that correct ammount has been paid\r\n    /// @param tableID The ID of the Table, where the food should be sent\r\n    /// @param qty0 How many orders of food from menu index 0\r\n    /// @param qty1 How many orders of food from menu index 1\r\n    /// @param qty2 How many orders of food from menu index 2\r\n    /// @return orderID The ID of the order placed\r\n    function customerSubmitOrder(uint table, uint qty0, uint qty1, uint qty2) \r\n        public payable returns(uint orderID){\r\n\r\n        // Prep info to be stored into order[x].memuChoices\r\n        uint[2][3] memory choices;\r\n        choices[0] = [0,qty0];\r\n        choices[1] = [1,qty1];\r\n        choices[2] = [2,qty2];\r\n\r\n        uint _cost;\r\n        _cost = choices[0][1] * menu[0].cost;\r\n        _cost += choices[1][1] * menu[1].cost;\r\n        _cost += choices[2][1] * menu[2].cost;\r\n\r\n        require(_cost <= msg.value, \"Paid too much.\");\r\n        require(_cost >= msg.value, \"Paid too little.\");\r\n\r\n        // Add a reference to the customer relative ID \r\n        uint _custRelID = custOpenOrders[msg.sender].length;\r\n\r\n        // Length - 1; might resut in buffer underflow. Check for 0 value first, then decriment\r\n        if (_custRelID != 0){_custRelID--;}\r\n        uint _openRelID = openOrders.length;\r\n        if (_openRelID != 0){_openRelID--;}\r\n\r\n        // Create records in all 3 variables\r\n        orderID = orders.push(Order(msg.sender,table,choices,_custRelID,_openRelID,State.ordered)) - 1;\r\n        openOrders.push(orderID);\r\n        custOpenOrders[msg.sender].push(orderID);\r\n    }\r\n\r\n    /// @notice Returns the absolute global orderID and quantity of orders on record for this customer\r\n    /// @dev Maps customer relative ID to global ID\r\n    /// @param relativeID The customer relative order ID starting from 0\r\n    /// @return ID The global order ID\r\n    /// @return qty The number of orders that the customer has under thier address\r\n    function customerGetOpenOrders(uint relativeID) public view isCustomer returns(uint ID, uint qty){\r\n        return(custOpenOrders[msg.sender][relativeID], custOpenOrders[msg.sender].length);\r\n    }\r\n    \r\n    /// @notice Updates the status of an order from Ordered to Approved\r\n    /// @param orderID The order ID to be changed to Approved\r\n    /// @return success true if the order change succeeded \r\n    function waiterApprove(uint orderID) public isWaiter {\r\n        require(orderID < orders.length, \"ID is invalid.\");\r\n        require(orders[orderID].state == State.ordered, \"This order is not in the ordered state\");\r\n        orders[orderID].state = State.accpeted;\r\n    }\r\n    \r\n    /// @notice Updates the status of an order from Approved to Cooking\r\n    /// @param orderID The order ID to be changed to Cooking\r\n    /// @return success true if the order change succeeded \r\n    function cookStart(uint orderID) public isCook {\r\n        require(orderID < orders.length, \"ID is invalid.\");\r\n        require(orders[orderID].state == State.accpeted, \"This order is not in the ordered state\");\r\n        orders[orderID].state = State.cooking;\r\n    }\r\n    \r\n    /// @notice Updates the status of an order from Cooking to Ready\r\n    /// @param orderID The order ID to be changed to Ready\r\n    /// @return success true if the order change succeeded \r\n    function cookFinish(uint orderID) public isCook {\r\n        require(orderID < orders.length, \"ID is invalid.\");\r\n        require(orders[orderID].state == State.cooking, \"This order is not in the ordered state\");\r\n        orders[orderID].state = State.ready;\r\n    }\r\n    \r\n    /// @notice Updates the status of an order from Ready to delivered\r\n    /// @param orderID The order ID to be changed to Ready\r\n    /// @return success true if the order change succeeded \r\n    function waiterDeliver(uint orderID) public isWaiter {\r\n        require(orderID < orders.length, \"ID is invalid.\");\r\n        require(orders[orderID].state == State.ready, \"This order is not in the ordered state.\");\r\n        orders[orderID].state = State.delivered;\r\n\r\n        // Clean up custOpenOrders state variable\r\n        address _customer = orders[orderID].customer;\r\n        uint _custRelID = orders[orderID].custRelID;\r\n        uint _custLastOrder = custOpenOrders[_customer].length - 1;\r\n        // Check to see if the relID is the last in the array\r\n        if (_custLastOrder != _custRelID){\r\n            // If not, then copy the last item overwriting the one being deleted\r\n            custOpenOrders[_customer][_custRelID] = custOpenOrders[_customer][_custRelID];            \r\n            // Get absolute order ID of the moved item\r\n            uint _absOrderID = custOpenOrders[_customer][_custRelID];\r\n            // Adjust the info in order state variable\r\n            orders[_absOrderID].custRelID = _custRelID;\r\n        }\r\n        // Shrink the array clearing moved ID or said relID\r\n        custOpenOrders[_customer].length--;\r\n\r\n        // Clean up openOrders state variable\r\n        uint _openRelID = orders[orderID].openRelID;\r\n        uint _openLastOrder = openOrders.length - 1;\r\n        // Check to see if the relID is the last in the array\r\n        if (_openRelID != _openLastOrder){\r\n            // If not, then copy the last item overwriting the one being deleted\r\n            openOrders[_openRelID] = openOrders[_openLastOrder];            \r\n        }\r\n        // Shrink the array clearing moved ID or said relID\r\n        openOrders.length--;\r\n    }\r\n\r\n    /// @notice Tells you the state of an odrer 0:Ordered 1:Approved 2:Cooking 3:Ready 4:Delivered\r\n    /// @param orderID The ID of the order that is being looked up\r\n    /// @return state The state of the order. 0:Ordered 1:Approved 2:Cooking 3:Ready 4:Delivered\r\n    function getOrderStatus(uint orderID) public view isCustomer returns(uint state){\r\n        require(orderID < orders.length, \"ID is invalid.\");\r\n        return(uint(orders[orderID].state));\r\n    }\r\n\r\n    /// @notice Tells you the state of an odrer 0:Ordered 1:Approved 2:Cooking 3:Ready 4:Delivered\r\n    /// @param orderID The ID of the order that is being looked up\r\n    /// @return state The state of the order. 0:Ordered 1:Approved 2:Cooking 3:Ready 4:Delivered\r\n    function getOpenOrders(uint relIndex) public view returns (uint ID, uint qty){\r\n        require(relIndex < openOrders.length, \"ID is invalid.\");\r\n        return(openOrders[relIndex],openOrders.length);\r\n    }\r\n\r\n    /// @notice Adds the role of Owner to the specified address\r\n    /// @param ownerAddress The address of the new Owner\r\n    /// @return success true if the address was promoted to the new role \r\n    function  addOwner(address ownerAddress) public isOwner returns (bool){\r\n        owners[ownerAddress] = true;\r\n        return(true);\r\n    }\r\n    /// @notice Adds the role of Waiter to the specified address\r\n    /// @param addWaiter The address of the new Waiter\r\n    /// @return success true if the address was promoted to the new role \r\n    function  addWaiter(address waiterAddress) public returns (bool success){\r\n        waiters[waiterAddress] = true;\r\n        return(true);\r\n    }\r\n    /// @notice Adds the role of Cook to the specified address\r\n    /// @param addCook The address of the new Cook\r\n    /// @return success true if the address was promoted to the new role \r\n    function  addCook(address cookAddress) public returns (bool success){\r\n        cooks[cookAddress] = true;\r\n        return(true);\r\n    }\r\n    /// @notice Removes the role of Owner to the specified address\r\n    /// @param ownerAddress The address of the Owner to be removed\r\n    /// @return success true if the address was removed from the role \r\n    function  removeOwner(address ownerAddress) public returns (bool success){\r\n        owners[ownerAddress] = false;\r\n        return(true);\r\n    }\r\n    /// @notice Removes the role of Waiter to the specified address\r\n    /// @param waiterAddress The address of the Waiter to be removed\r\n    /// @return success true if the address was removed from the role \r\n    function  removeWaiter(address waiterAddress) public returns (bool success){\r\n        waiters[waiterAddress] = false;\r\n        return(true);\r\n    }\r\n    /// @notice Removes the role of Cook to the specified address\r\n    /// @param cookAddress The address of the Cook to be removed\r\n    /// @return success true if the address was removed from the role \r\n    function  removeCook(address cookAddress) public returns (bool success){\r\n        cooks[cookAddress] = false;\r\n        return(true);\r\n    }\r\n\r\n    /// @notice Checks to see if the requested address is a waiter\r\n    /// @param queryAddress The address that you want to confirm\r\n    /// @return success true if address is a member of waiters\r\n    function  getWaiter(address queryAddress) public view returns (bool success){\r\n        return(waiters[queryAddress]);\r\n    }\r\n\r\n    /// @notice Checks to see if the requested address is a cook\r\n    /// @param queryAddress The address that you want to confirm\r\n    /// @return success true if address is a member of cooks\r\n    function  getCook(address queryAddress) public view returns (bool success){\r\n        return(cooks[queryAddress]);\r\n    }\r\n\r\n    /// @notice Checks to see if the requested address is an owner\r\n    /// @param queryAddress The address that you want to confirm\r\n    /// @return success true if address is a member of owners\r\n    function  getOwner(address queryAddress) public view returns (bool success){\r\n        return(owners[queryAddress]);\r\n    }\r\n\r\n    /// @notice Checks to see if the requested address is a waiter\r\n    /// @param queryAddress The address that you want to confirm\r\n    /// @return success true if address is a member of waiters\r\n    function withdraw(uint withdrawAmount) public isOwner {\r\n        require (address(this).balance >= withdrawAmount, \"Requested more money tha the contract has.\");\r\n        msg.sender.transfer(withdrawAmount);\r\n    }\r\n\r\n    /// @notice Fallback function\r\n    /// @dev No params nor returns. This is here just in case no functions are called\r\n    function () external payable{}\r\n\r\n\r\n} // End contract",
  "sourcePath": "C:/Users/Ace/Documents/GitHub/BiteChain/contracts/BiteChain.sol",
  "compiler": {
    "name": "solc",
    "version": "0.5.0+commit.1d4f565a.Emscripten.clang"
  },
  "schemaVersion": "3.0.1",
  "updatedAt": "2019-01-21T19:10:31.217Z",
  "devdoc": {
    "details": "All function calls are currently implement without side effects",
    "methods": {
      "addCook(address)": {
        "return": "success true if the address was promoted to the new role "
      },
      "addOwner(address)": {
        "return": "success true if the address was promoted to the new role "
      },
      "addWaiter(address)": {
        "return": "success true if the address was promoted to the new role "
      },
      "cookFinish(uint256)": {
        "return": "success true if the order change succeeded "
      },
      "cookStart(uint256)": {
        "return": "success true if the order change succeeded "
      },
      "customerGetOpenOrders(uint256)": {
        "return": "qty The number of orders that the customer has under thier address"
      },
      "customerSubmitOrder(uint256,uint256,uint256,uint256)": {
        "return": "orderID The ID of the order placed"
      },
      "getCook(address)": {
        "return": "success true if address is a member of cooks"
      },
      "getMenu(uint256)": {
        "return": "cost of the item at index requested"
      },
      "getMenuLength()": {
        "return": "count of menu items"
      },
      "getOpenOrders(uint256)": {
        "return": "state The state of the order. 0:Ordered 1:Approved 2:Cooking 3:Ready 4:Delivered"
      },
      "getOrderStatus(uint256)": {
        "return": "state The state of the order. 0:Ordered 1:Approved 2:Cooking 3:Ready 4:Delivered"
      },
      "getOwner(address)": {
        "return": "success true if address is a member of owners"
      },
      "getWaiter(address)": {
        "return": "success true if address is a member of waiters"
      },
      "removeCook(address)": {
        "return": "success true if the address was removed from the role "
      },
      "removeOwner(address)": {
        "return": "success true if the address was removed from the role "
      },
      "removeWaiter(address)": {
        "return": "success true if the address was removed from the role "
      },
      "waiterApprove(uint256)": {
        "return": "success true if the order change succeeded "
      },
      "waiterDeliver(uint256)": {
        "return": "success true if the order change succeeded "
      },
      "withdraw(uint256)": {
        "return": "success true if address is a member of waiters"
      }
    }
  },
  "userdoc": {
    "methods": {}
  }
}