{
  "contractName": "BiteChain",
  "abi": [
    {
      "inputs": [],
      "payable": false,
      "stateMutability": "nonpayable",
      "type": "constructor",
      "signature": "constructor"
    },
    {
      "payable": true,
      "stateMutability": "payable",
      "type": "fallback"
    },
    {
      "constant": true,
      "inputs": [],
      "name": "getMenuLength",
      "outputs": [
        {
          "name": "",
          "type": "uint256"
        }
      ],
      "payable": false,
      "stateMutability": "view",
      "type": "function",
      "signature": "0x125ba977"
    },
    {
      "constant": true,
      "inputs": [
        {
          "name": "index",
          "type": "uint256"
        }
      ],
      "name": "getMenu",
      "outputs": [
        {
          "name": "",
          "type": "string"
        },
        {
          "name": "",
          "type": "uint256"
        }
      ],
      "payable": false,
      "stateMutability": "view",
      "type": "function",
      "signature": "0x842bb5b2"
    },
    {
      "constant": false,
      "inputs": [
        {
          "name": "table",
          "type": "uint256"
        },
        {
          "name": "qty0",
          "type": "uint256"
        },
        {
          "name": "qty1",
          "type": "uint256"
        },
        {
          "name": "qty2",
          "type": "uint256"
        }
      ],
      "name": "customerSubmitOrder",
      "outputs": [
        {
          "name": "orderID",
          "type": "uint256"
        }
      ],
      "payable": true,
      "stateMutability": "payable",
      "type": "function",
      "signature": "0x95af73a2"
    },
    {
      "constant": true,
      "inputs": [
        {
          "name": "relativeID",
          "type": "uint256"
        }
      ],
      "name": "customerGetOpenOrders",
      "outputs": [
        {
          "name": "ID",
          "type": "uint256"
        },
        {
          "name": "qty",
          "type": "uint256"
        }
      ],
      "payable": false,
      "stateMutability": "view",
      "type": "function",
      "signature": "0x8fa37437"
    },
    {
      "constant": false,
      "inputs": [
        {
          "name": "orderID",
          "type": "uint256"
        }
      ],
      "name": "waiterApprove",
      "outputs": [],
      "payable": false,
      "stateMutability": "nonpayable",
      "type": "function",
      "signature": "0x140696b8"
    },
    {
      "constant": false,
      "inputs": [
        {
          "name": "orderID",
          "type": "uint256"
        }
      ],
      "name": "cookStart",
      "outputs": [],
      "payable": false,
      "stateMutability": "nonpayable",
      "type": "function",
      "signature": "0xe0ea38ad"
    },
    {
      "constant": false,
      "inputs": [
        {
          "name": "orderID",
          "type": "uint256"
        }
      ],
      "name": "cookFinish",
      "outputs": [],
      "payable": false,
      "stateMutability": "nonpayable",
      "type": "function",
      "signature": "0x2bc4acea"
    },
    {
      "constant": false,
      "inputs": [
        {
          "name": "orderID",
          "type": "uint256"
        }
      ],
      "name": "waiterDeliver",
      "outputs": [],
      "payable": false,
      "stateMutability": "nonpayable",
      "type": "function",
      "signature": "0x58220148"
    },
    {
      "constant": true,
      "inputs": [
        {
          "name": "orderID",
          "type": "uint256"
        }
      ],
      "name": "getOrderStatus",
      "outputs": [
        {
          "name": "state",
          "type": "uint256"
        }
      ],
      "payable": false,
      "stateMutability": "view",
      "type": "function",
      "signature": "0x45fa8aae"
    },
    {
      "constant": true,
      "inputs": [
        {
          "name": "relIndex",
          "type": "uint256"
        }
      ],
      "name": "getOpenOrders",
      "outputs": [
        {
          "name": "ID",
          "type": "uint256"
        },
        {
          "name": "qty",
          "type": "uint256"
        }
      ],
      "payable": false,
      "stateMutability": "view",
      "type": "function",
      "signature": "0x50710c97"
    },
    {
      "constant": false,
      "inputs": [
        {
          "name": "ownerAddress",
          "type": "address"
        }
      ],
      "name": "addOwner",
      "outputs": [
        {
          "name": "",
          "type": "bool"
        }
      ],
      "payable": false,
      "stateMutability": "nonpayable",
      "type": "function",
      "signature": "0x7065cb48"
    },
    {
      "constant": false,
      "inputs": [
        {
          "name": "waiterAddress",
          "type": "address"
        }
      ],
      "name": "addWaiter",
      "outputs": [
        {
          "name": "success",
          "type": "bool"
        }
      ],
      "payable": false,
      "stateMutability": "nonpayable",
      "type": "function",
      "signature": "0x8156a01c"
    },
    {
      "constant": false,
      "inputs": [
        {
          "name": "cookAddress",
          "type": "address"
        }
      ],
      "name": "addCook",
      "outputs": [
        {
          "name": "success",
          "type": "bool"
        }
      ],
      "payable": false,
      "stateMutability": "nonpayable",
      "type": "function",
      "signature": "0x088ed5b5"
    },
    {
      "constant": false,
      "inputs": [
        {
          "name": "ownerAddress",
          "type": "address"
        }
      ],
      "name": "removeOwner",
      "outputs": [
        {
          "name": "success",
          "type": "bool"
        }
      ],
      "payable": false,
      "stateMutability": "nonpayable",
      "type": "function",
      "signature": "0x173825d9"
    },
    {
      "constant": false,
      "inputs": [
        {
          "name": "waiterAddress",
          "type": "address"
        }
      ],
      "name": "removeWaiter",
      "outputs": [
        {
          "name": "success",
          "type": "bool"
        }
      ],
      "payable": false,
      "stateMutability": "nonpayable",
      "type": "function",
      "signature": "0x9d61a714"
    },
    {
      "constant": false,
      "inputs": [
        {
          "name": "cookAddress",
          "type": "address"
        }
      ],
      "name": "removeCook",
      "outputs": [
        {
          "name": "success",
          "type": "bool"
        }
      ],
      "payable": false,
      "stateMutability": "nonpayable",
      "type": "function",
      "signature": "0x268cfbaf"
    },
    {
      "constant": true,
      "inputs": [
        {
          "name": "queryAddress",
          "type": "address"
        }
      ],
      "name": "getWaiter",
      "outputs": [
        {
          "name": "success",
          "type": "bool"
        }
      ],
      "payable": false,
      "stateMutability": "view",
      "type": "function",
      "signature": "0xf3e796ac"
    },
    {
      "constant": true,
      "inputs": [
        {
          "name": "queryAddress",
          "type": "address"
        }
      ],
      "name": "getCook",
      "outputs": [
        {
          "name": "success",
          "type": "bool"
        }
      ],
      "payable": false,
      "stateMutability": "view",
      "type": "function",
      "signature": "0x6195ef45"
    },
    {
      "constant": true,
      "inputs": [
        {
          "name": "queryAddress",
          "type": "address"
        }
      ],
      "name": "getOwner",
      "outputs": [
        {
          "name": "success",
          "type": "bool"
        }
      ],
      "payable": false,
      "stateMutability": "view",
      "type": "function",
      "signature": "0xfa544161"
    },
    {
      "constant": false,
      "inputs": [
        {
          "name": "withdrawAmount",
          "type": "uint256"
        }
      ],
      "name": "withdraw",
      "outputs": [],
      "payable": false,
      "stateMutability": "nonpayable",
      "type": "function",
      "signature": "0x2e1a7d4d"
    },
    {
      "constant": false,
      "inputs": [],
      "name": "destroyContract",
      "outputs": [],
      "payable": false,
      "stateMutability": "nonpayable",
      "type": "function",
      "signature": "0x092a5cce"
    },
    {
      "constant": false,
      "inputs": [],
      "name": "disableBreaker",
      "outputs": [],
      "payable": false,
      "stateMutability": "nonpayable",
      "type": "function",
      "signature": "0xd9f7d4b0"
    },
    {
      "constant": false,
      "inputs": [],
      "name": "enableBreaker",
      "outputs": [],
      "payable": false,
      "stateMutability": "nonpayable",
      "type": "function",
      "signature": "0x0c9bca37"
    }
  ],
  "bytecode": "0x60806040523480156200001157600080fd5b506001600460003373ffffffffffffffffffffffffffffffffffffffff1673ffffffffffffffffffffffffffffffffffffffff16815260200190815260200160002060006101000a81548160ff0219169083151502179055506001600560003373ffffffffffffffffffffffffffffffffffffffff1673ffffffffffffffffffffffffffffffffffffffff16815260200190815260200160002060006101000a81548160ff0219169083151502179055506001600660003373ffffffffffffffffffffffffffffffffffffffff1673ffffffffffffffffffffffffffffffffffffffff16815260200190815260200160002060006101000a81548160ff0219169083151502179055506000600260006101000a81548160ff021916908315150217905550336000806101000a81548173ffffffffffffffffffffffffffffffffffffffff021916908373ffffffffffffffffffffffffffffffffffffffff160217905550600760408051908101604052806040805190810160405280600881526020017f53616e6477696368000000000000000000000000000000000000000000000000815250815260200160018152509080600181540180825580915050906001820390600052602060002090600202016000909192909190915060008201518160000190805190602001906200020b92919062000367565b5060208201518160010155505050600760408051908101604052806040805190810160405280600481526020017f5461636f0000000000000000000000000000000000000000000000000000000081525081526020016003815250908060018154018082558091505090600182039060005260206000209060020201600090919290919091506000820151816000019080519060200190620002af92919062000367565b5060208201518160010155505050600760408051908101604052806040805190810160405280600781526020017f436869636b656e00000000000000000000000000000000000000000000000000815250815260200160028152509080600181540180825580915050906001820390600052602060002090600202016000909192909190915060008201518160000190805190602001906200035392919062000367565b506020820151816001015550505062000416565b828054600181600116156101000203166002900490600052602060002090601f016020900481019282601f10620003aa57805160ff1916838001178555620003db565b82800160010185558215620003db579182015b82811115620003da578251825591602001919060010190620003bd565b5b509050620003ea9190620003ee565b5090565b6200041391905b808211156200040f576000816000905550600101620003f5565b5090565b90565b612ab880620004266000396000f3fe608060405260043610610133576000357c0100000000000000000000000000000000000000000000000000000000900463ffffffff168063088ed5b514610135578063092a5cce1461019e5780630c9bca37146101b5578063125ba977146101cc578063140696b8146101f7578063173825d914610232578063268cfbaf1461029b5780632bc4acea146103045780632e1a7d4d1461033f57806345fa8aae1461037a57806350710c97146103c9578063582201481461041f5780636195ef451461045a5780637065cb48146104c35780638156a01c1461052c578063842bb5b2146105955780638fa374371461065057806395af73a2146106a65780639d61a71414610706578063d9f7d4b01461076f578063e0ea38ad14610786578063f3e796ac146107c1578063fa5441611461082a575b005b34801561014157600080fd5b506101846004803603602081101561015857600080fd5b81019080803573ffffffffffffffffffffffffffffffffffffffff169060200190929190505050610893565b604051808215151515815260200191505060405180910390f35b3480156101aa57600080fd5b506101b36108f6565b005b3480156101c157600080fd5b506101ca610a2e565b005b3480156101d857600080fd5b506101e1610b6a565b6040518082815260200191505060405180910390f35b34801561020357600080fd5b506102306004803603602081101561021a57600080fd5b8101908080359060200190929190505050610b77565b005b34801561023e57600080fd5b506102816004803603602081101561025557600080fd5b81019080803573ffffffffffffffffffffffffffffffffffffffff169060200190929190505050610de1565b604051808215151515815260200191505060405180910390f35b3480156102a757600080fd5b506102ea600480360360208110156102be57600080fd5b81019080803573ffffffffffffffffffffffffffffffffffffffff169060200190929190505050610e43565b604051808215151515815260200191505060405180910390f35b34801561031057600080fd5b5061033d6004803603602081101561032757600080fd5b8101908080359060200190929190505050610ea5565b005b34801561034b57600080fd5b506103786004803603602081101561036257600080fd5b810190808035906020019092919050505061110f565b005b34801561038657600080fd5b506103b36004803603602081101561039d57600080fd5b810190808035906020019092919050505061132d565b6040518082815260200191505060405180910390f35b3480156103d557600080fd5b50610402600480360360208110156103ec57600080fd5b81019080803590602001909291905050506114a5565b604051808381526020018281526020019250505060405180910390f35b34801561042b57600080fd5b506104586004803603602081101561044257600080fd5b810190808035906020019092919050505061154d565b005b34801561046657600080fd5b506104a96004803603602081101561047d57600080fd5b81019080803573ffffffffffffffffffffffffffffffffffffffff169060200190929190505050611a87565b604051808215151515815260200191505060405180910390f35b3480156104cf57600080fd5b50610512600480360360208110156104e657600080fd5b81019080803573ffffffffffffffffffffffffffffffffffffffff169060200190929190505050611add565b604051808215151515815260200191505060405180910390f35b34801561053857600080fd5b5061057b6004803603602081101561054f57600080fd5b81019080803573ffffffffffffffffffffffffffffffffffffffff169060200190929190505050611c5f565b604051808215151515815260200191505060405180910390f35b3480156105a157600080fd5b506105ce600480360360208110156105b857600080fd5b8101908080359060200190929190505050611cc2565b6040518080602001838152602001828103825284818151815260200191508051906020019080838360005b838110156106145780820151818401526020810190506105f9565b50505050905090810190601f1680156106415780820380516001836020036101000a031916815260200191505b50935050505060405180910390f35b34801561065c57600080fd5b506106896004803603602081101561067357600080fd5b8101908080359060200190929190505050611dac565b604051808381526020018281526020019250505060405180910390f35b6106f0600480360360808110156106bc57600080fd5b8101908080359060200190929190803590602001909291908035906020019092919080359060200190929190505050611f0d565b6040518082815260200191505060405180910390f35b34801561071257600080fd5b506107556004803603602081101561072957600080fd5b81019080803573ffffffffffffffffffffffffffffffffffffffff16906020019092919050505061246c565b604051808215151515815260200191505060405180910390f35b34801561077b57600080fd5b506107846124ce565b005b34801561079257600080fd5b506107bf600480360360208110156107a957600080fd5b810190808035906020019092919050505061260a565b005b3480156107cd57600080fd5b50610810600480360360208110156107e457600080fd5b81019080803573ffffffffffffffffffffffffffffffffffffffff169060200190929190505050612874565b604051808215151515815260200191505060405180910390f35b34801561083657600080fd5b506108796004803603602081101561084d57600080fd5b81019080803573ffffffffffffffffffffffffffffffffffffffff1690602001909291905050506128ca565b604051808215151515815260200191505060405180910390f35b60006001600560008473ffffffffffffffffffffffffffffffffffffffff1673ffffffffffffffffffffffffffffffffffffffff16815260200190815260200160002060006101000a81548160ff02191690831515021790555060019050919050565b60011515600460003373ffffffffffffffffffffffffffffffffffffffff1673ffffffffffffffffffffffffffffffffffffffff16815260200190815260200160002060009054906101000a900460ff16151514806109a157506000809054906101000a900473ffffffffffffffffffffffffffffffffffffffff1673ffffffffffffffffffffffffffffffffffffffff163373ffffffffffffffffffffffffffffffffffffffff16145b1515610a15576040517f08c379a000000000000000000000000000000000000000000000000000000000815260040180806020018281038252601d8152602001807f4f6e6c7920616e206f776e65722063616e206d6f64696679207468697300000081525060200191505060405180910390fd5b3373ffffffffffffffffffffffffffffffffffffffff16ff5b60011515600460003373ffffffffffffffffffffffffffffffffffffffff1673ffffffffffffffffffffffffffffffffffffffff16815260200190815260200160002060009054906101000a900460ff1615151480610ad957506000809054906101000a900473ffffffffffffffffffffffffffffffffffffffff1673ffffffffffffffffffffffffffffffffffffffff163373ffffffffffffffffffffffffffffffffffffffff16145b1515610b4d576040517f08c379a000000000000000000000000000000000000000000000000000000000815260040180806020018281038252601d8152602001807f4f6e6c7920616e206f776e65722063616e206d6f64696679207468697300000081525060200191505060405180910390fd5b6001600260006101000a81548160ff021916908315150217905550565b6000600780549050905090565b60011515600660003373ffffffffffffffffffffffffffffffffffffffff1673ffffffffffffffffffffffffffffffffffffffff16815260200190815260200160002060009054906101000a900460ff161515141515610c3f576040517f08c379a000000000000000000000000000000000000000000000000000000000815260040180806020018281038252601f8152602001807f4f6e6c7920616e20776169746572732063616e206d6f6469667920746869730081525060200191505060405180910390fd5b60088054905081101515610cbb576040517f08c379a000000000000000000000000000000000000000000000000000000000815260040180806020018281038252600e8152602001807f494420697320696e76616c69642e00000000000000000000000000000000000081525060200191505060405180910390fd5b60006004811115610cc857fe5b600882815481101515610cd757fe5b90600052602060002090600b0201600a0160009054906101000a900460ff166004811115610d0157fe5b141515610d9c576040517f08c379a00000000000000000000000000000000000000000000000000000000081526004018080602001828103825260268152602001807f54686973206f72646572206973206e6f7420696e20746865206f72646572656481526020017f207374617465000000000000000000000000000000000000000000000000000081525060400191505060405180910390fd5b6001600882815481101515610dad57fe5b90600052602060002090600b0201600a0160006101000a81548160ff02191690836004811115610dd957fe5b021790555050565b600080600460008473ffffffffffffffffffffffffffffffffffffffff1673ffffffffffffffffffffffffffffffffffffffff16815260200190815260200160002060006101000a81548160ff02191690831515021790555060019050919050565b600080600560008473ffffffffffffffffffffffffffffffffffffffff1673ffffffffffffffffffffffffffffffffffffffff16815260200190815260200160002060006101000a81548160ff02191690831515021790555060019050919050565b60011515600560003373ffffffffffffffffffffffffffffffffffffffff1673ffffffffffffffffffffffffffffffffffffffff16815260200190815260200160002060009054906101000a900460ff161515141515610f6d576040517f08c379a000000000000000000000000000000000000000000000000000000000815260040180806020018281038252601a8152602001807f4f6e6c7920636f6f6b732063616e206d6f64696679207468697300000000000081525060200191505060405180910390fd5b60088054905081101515610fe9576040517f08c379a000000000000000000000000000000000000000000000000000000000815260040180806020018281038252600e8152602001807f494420697320696e76616c69642e00000000000000000000000000000000000081525060200191505060405180910390fd5b60026004811115610ff657fe5b60088281548110151561100557fe5b90600052602060002090600b0201600a0160009054906101000a900460ff16600481111561102f57fe5b1415156110ca576040517f08c379a00000000000000000000000000000000000000000000000000000000081526004018080602001828103825260268152602001807f54686973206f72646572206973206e6f7420696e20746865206f72646572656481526020017f207374617465000000000000000000000000000000000000000000000000000081525060400191505060405180910390fd5b60036008828154811015156110db57fe5b90600052602060002090600b0201600a0160006101000a81548160ff0219169083600481111561110757fe5b021790555050565b60011515600460003373ffffffffffffffffffffffffffffffffffffffff1673ffffffffffffffffffffffffffffffffffffffff16815260200190815260200160002060009054906101000a900460ff16151514806111ba57506000809054906101000a900473ffffffffffffffffffffffffffffffffffffffff1673ffffffffffffffffffffffffffffffffffffffff163373ffffffffffffffffffffffffffffffffffffffff16145b151561122e576040517f08c379a000000000000000000000000000000000000000000000000000000000815260040180806020018281038252601d8152602001807f4f6e6c7920616e206f776e65722063616e206d6f64696679207468697300000081525060200191505060405180910390fd5b803073ffffffffffffffffffffffffffffffffffffffff1631101515156112e3576040517f08c379a000000000000000000000000000000000000000000000000000000000815260040180806020018281038252602b8152602001807f526571756573746564206d6f7265206d6f6e6579207468616e2074686520636f81526020017f6e7472616374206861732e00000000000000000000000000000000000000000081525060400191505060405180910390fd5b3373ffffffffffffffffffffffffffffffffffffffff166108fc829081150290604051600060405180830381858888f19350505050158015611329573d6000803e3d6000fd5b5050565b600080600360003373ffffffffffffffffffffffffffffffffffffffff1673ffffffffffffffffffffffffffffffffffffffff16815260200190815260200160002080549050141515156113e9576040517f08c379a00000000000000000000000000000000000000000000000000000000081526004018080602001828103825260148152602001807f4e6f206f70656e206f726465727320666f756e6400000000000000000000000081525060200191505060405180910390fd5b60088054905082101515611465576040517f08c379a000000000000000000000000000000000000000000000000000000000815260040180806020018281038252600e8152602001807f494420697320696e76616c69642e00000000000000000000000000000000000081525060200191505060405180910390fd5b60088281548110151561147457fe5b90600052602060002090600b0201600a0160009054906101000a900460ff16600481111561149e57fe5b9050919050565b60008060018054905083101515611524576040517f08c379a000000000000000000000000000000000000000000000000000000000815260040180806020018281038252600e8152602001807f494420697320696e76616c69642e00000000000000000000000000000000000081525060200191505060405180910390fd5b60018381548110151561153357fe5b906000526020600020015460018054905091509150915091565b60011515600660003373ffffffffffffffffffffffffffffffffffffffff1673ffffffffffffffffffffffffffffffffffffffff16815260200190815260200160002060009054906101000a900460ff161515141515611615576040517f08c379a000000000000000000000000000000000000000000000000000000000815260040180806020018281038252601f8152602001807f4f6e6c7920616e20776169746572732063616e206d6f6469667920746869730081525060200191505060405180910390fd5b60088054905081101515611691576040517f08c379a000000000000000000000000000000000000000000000000000000000815260040180806020018281038252600e8152602001807f494420697320696e76616c69642e00000000000000000000000000000000000081525060200191505060405180910390fd5b6003600481111561169e57fe5b6008828154811015156116ad57fe5b90600052602060002090600b0201600a0160009054906101000a900460ff1660048111156116d757fe5b141515611772576040517f08c379a00000000000000000000000000000000000000000000000000000000081526004018080602001828103825260278152602001807f54686973206f72646572206973206e6f7420696e20746865206f72646572656481526020017f2073746174652e0000000000000000000000000000000000000000000000000081525060400191505060405180910390fd5b600460088281548110151561178357fe5b90600052602060002090600b0201600a0160006101000a81548160ff021916908360048111156117af57fe5b021790555060006008828154811015156117c557fe5b90600052602060002090600b020160000160009054906101000a900473ffffffffffffffffffffffffffffffffffffffff169050600060088381548110151561180a57fe5b90600052602060002090600b020160080154905060006001600360008573ffffffffffffffffffffffffffffffffffffffff1673ffffffffffffffffffffffffffffffffffffffff1681526020019081526020016000208054905003905081811415156119a457600360008473ffffffffffffffffffffffffffffffffffffffff1673ffffffffffffffffffffffffffffffffffffffff168152602001908152602001600020828154811015156118bd57fe5b9060005260206000200154600360008573ffffffffffffffffffffffffffffffffffffffff1673ffffffffffffffffffffffffffffffffffffffff1681526020019081526020016000208381548110151561191457fe5b90600052602060002001819055506000600360008573ffffffffffffffffffffffffffffffffffffffff1673ffffffffffffffffffffffffffffffffffffffff1681526020019081526020016000208381548110151561197057fe5b906000526020600020015490508260088281548110151561198d57fe5b90600052602060002090600b020160080181905550505b600360008473ffffffffffffffffffffffffffffffffffffffff1673ffffffffffffffffffffffffffffffffffffffff1681526020019081526020016000208054809190600190036119f69190612920565b506000600885815481101515611a0857fe5b90600052602060002090600b02016009015490506000600180805490500390508082141515611a6957600181815481101515611a4057fe5b9060005260206000200154600183815481101515611a5a57fe5b90600052602060002001819055505b6001805480919060019003611a7e9190612920565b50505050505050565b6000600560008373ffffffffffffffffffffffffffffffffffffffff1673ffffffffffffffffffffffffffffffffffffffff16815260200190815260200160002060009054906101000a900460ff169050919050565b600060011515600460003373ffffffffffffffffffffffffffffffffffffffff1673ffffffffffffffffffffffffffffffffffffffff16815260200190815260200160002060009054906101000a900460ff1615151480611b8a57506000809054906101000a900473ffffffffffffffffffffffffffffffffffffffff1673ffffffffffffffffffffffffffffffffffffffff163373ffffffffffffffffffffffffffffffffffffffff16145b1515611bfe576040517f08c379a000000000000000000000000000000000000000000000000000000000815260040180806020018281038252601d8152602001807f4f6e6c7920616e206f776e65722063616e206d6f64696679207468697300000081525060200191505060405180910390fd5b6001600460008473ffffffffffffffffffffffffffffffffffffffff1673ffffffffffffffffffffffffffffffffffffffff16815260200190815260200160002060006101000a81548160ff02191690831515021790555060019050919050565b60006001600660008473ffffffffffffffffffffffffffffffffffffffff1673ffffffffffffffffffffffffffffffffffffffff16815260200190815260200160002060006101000a81548160ff02191690831515021790555060019050919050565b60606000600783815481101515611cd557fe5b9060005260206000209060020201600001600784815481101515611cf557fe5b906000526020600020906002020160010154818054600181600116156101000203166002900480601f016020809104026020016040519081016040528092919081815260200182805460018160011615610100020316600290048015611d9c5780601f10611d7157610100808354040283529160200191611d9c565b820191906000526020600020905b815481529060010190602001808311611d7f57829003601f168201915b5050505050915091509150915091565b6000806000600360003373ffffffffffffffffffffffffffffffffffffffff1673ffffffffffffffffffffffffffffffffffffffff1681526020019081526020016000208054905014151515611e6a576040517f08c379a00000000000000000000000000000000000000000000000000000000081526004018080602001828103825260148152602001807f4e6f206f70656e206f726465727320666f756e6400000000000000000000000081525060200191505060405180910390fd5b600360003373ffffffffffffffffffffffffffffffffffffffff1673ffffffffffffffffffffffffffffffffffffffff16815260200190815260200160002083815481101515611eb657fe5b9060005260206000200154600360003373ffffffffffffffffffffffffffffffffffffffff1673ffffffffffffffffffffffffffffffffffffffff1681526020019081526020016000208054905091509150915091565b6000801515600260009054906101000a900460ff161515141515611fbf576040517f08c379a00000000000000000000000000000000000000000000000000000000081526004018080602001828103825260238152602001807f536f7272792c2063757272656e746c79206e6f742074616b696e67206f72646581526020017f72732e000000000000000000000000000000000000000000000000000000000081525060400191505060405180910390fd5b611fc761294c565b60408051908101604052806000815260200186815250816000600381101515611fec57fe5b60200201819052506040805190810160405280600181526020018581525081600160038110151561201957fe5b60200201819052506040805190810160405280600281526020018481525081600260038110151561204657fe5b602002018190525060006007600081548110151561206057fe5b90600052602060002090600202016001015482600060038110151561208157fe5b6020020151600160028110151561209457fe5b6020020151029050600760018154811015156120ac57fe5b9060005260206000209060020201600101548260016003811015156120cd57fe5b602002015160016002811015156120e057fe5b60200201510281019050600760028154811015156120fa57fe5b90600052602060002090600202016001015482600260038110151561211b57fe5b6020020151600160028110151561212e57fe5b602002015102810190503481101515156121b0576040517f08c379a000000000000000000000000000000000000000000000000000000000815260040180806020018281038252600e8152602001807f5061696420746f6f206d7563682e00000000000000000000000000000000000081525060200191505060405180910390fd5b348111151515612228576040517f08c379a00000000000000000000000000000000000000000000000000000000081526004018080602001828103825260108152602001807f5061696420746f6f206c6974746c652e0000000000000000000000000000000081525060200191505060405180910390fd5b6000600360003373ffffffffffffffffffffffffffffffffffffffff1673ffffffffffffffffffffffffffffffffffffffff168152602001908152602001600020805490509050600081141515612283578080600190039150505b600060018054905090506000811415156122a1578080600190039150505b6001600860c0604051908101604052803373ffffffffffffffffffffffffffffffffffffffff1681526020018c8152602001878152602001858152602001848152602001600060048111156122f257fe5b8152509080600181540180825580915050906001820390600052602060002090600b02016000909192909190915060008201518160000160006101000a81548173ffffffffffffffffffffffffffffffffffffffff021916908373ffffffffffffffffffffffffffffffffffffffff1602179055506020820151816001015560408201518160020190600361238892919061297a565b50606082015181600801556080820151816009015560a082015181600a0160006101000a81548160ff021916908360048111156123c157fe5b021790555050500394506001859080600181540180825580915050906001820390600052602060002001600090919290919091505550600360003373ffffffffffffffffffffffffffffffffffffffff1673ffffffffffffffffffffffffffffffffffffffff16815260200190815260200160002085908060018154018082558091505090600182039060005260206000200160009091929091909150555050505050949350505050565b600080600660008473ffffffffffffffffffffffffffffffffffffffff1673ffffffffffffffffffffffffffffffffffffffff16815260200190815260200160002060006101000a81548160ff02191690831515021790555060019050919050565b60011515600460003373ffffffffffffffffffffffffffffffffffffffff1673ffffffffffffffffffffffffffffffffffffffff16815260200190815260200160002060009054906101000a900460ff161515148061257957506000809054906101000a900473ffffffffffffffffffffffffffffffffffffffff1673ffffffffffffffffffffffffffffffffffffffff163373ffffffffffffffffffffffffffffffffffffffff16145b15156125ed576040517f08c379a000000000000000000000000000000000000000000000000000000000815260040180806020018281038252601d8152602001807f4f6e6c7920616e206f776e65722063616e206d6f64696679207468697300000081525060200191505060405180910390fd5b6000600260006101000a81548160ff021916908315150217905550565b60011515600560003373ffffffffffffffffffffffffffffffffffffffff1673ffffffffffffffffffffffffffffffffffffffff16815260200190815260200160002060009054906101000a900460ff1615151415156126d2576040517f08c379a000000000000000000000000000000000000000000000000000000000815260040180806020018281038252601a8152602001807f4f6e6c7920636f6f6b732063616e206d6f64696679207468697300000000000081525060200191505060405180910390fd5b6008805490508110151561274e576040517f08c379a000000000000000000000000000000000000000000000000000000000815260040180806020018281038252600e8152602001807f494420697320696e76616c69642e00000000000000000000000000000000000081525060200191505060405180910390fd5b6001600481111561275b57fe5b60088281548110151561276a57fe5b90600052602060002090600b0201600a0160009054906101000a900460ff16600481111561279457fe5b14151561282f576040517f08c379a00000000000000000000000000000000000000000000000000000000081526004018080602001828103825260268152602001807f54686973206f72646572206973206e6f7420696e20746865206f72646572656481526020017f207374617465000000000000000000000000000000000000000000000000000081525060400191505060405180910390fd5b600260088281548110151561284057fe5b90600052602060002090600b0201600a0160006101000a81548160ff0219169083600481111561286c57fe5b021790555050565b6000600660008373ffffffffffffffffffffffffffffffffffffffff1673ffffffffffffffffffffffffffffffffffffffff16815260200190815260200160002060009054906101000a900460ff169050919050565b6000600460008373ffffffffffffffffffffffffffffffffffffffff1673ffffffffffffffffffffffffffffffffffffffff16815260200190815260200160002060009054906101000a900460ff169050919050565b8154818355818111156129475781836000526020600020918201910161294691906129cb565b5b505050565b60c0604051908101604052806003905b6129646129f0565b81526020019060019003908161295c5790505090565b82600360020281019282156129ba579160200282015b828111156129b9578251829060026129a9929190612a12565b5091602001919060020190612990565b5b5090506129c79190612a52565b5090565b6129ed91905b808211156129e95760008160009055506001016129d1565b5090565b90565b6040805190810160405280600290602082028038833980820191505090505090565b8260028101928215612a41579160200282015b82811115612a40578251825591602001919060010190612a25565b5b509050612a4e91906129cb565b5090565b612a7b91905b80821115612a775760008181612a6e9190612a7e565b50600201612a58565b5090565b90565b50600081556001016000905556fea165627a7a72305820968b795215f5206cd380977685ec6e9eccbd81f6b61a77f2fe1c6d86736def9f0029",
  "source": "pragma solidity ^0.5.0;\r\n\r\n/// @title A restaurant order managment system\r\n/// @author Nanoshi\r\n/// @notice You can use this contract for testing purposes only\r\n/// @dev All function calls are currently implement without side effects\r\ncontract BiteChain {\r\n\r\n    /* State Variables */\r\n    address owner;\r\n    // Tracks open orders at a table\r\n    uint[] openOrders;\r\n    bool circuitBreaker;\r\n\r\n    // Orders specific to a customer\r\n    mapping (address => uint[]) custOpenOrders;\r\n    // Tracking of owners, cooks and waiters\r\n    mapping (address => bool) owners;\r\n    mapping (address => bool) cooks;\r\n    mapping (address => bool) waiters;\r\n\r\n    // Menu stuct for holding items as cost\r\n    struct Menu {\r\n        string name;\r\n        uint cost;\r\n    }\r\n    Menu[] menu;\r\n\r\n    // Tracks the flow of orders as they progress\r\n    enum State { ordered, accpeted, cooking, ready, delivered }\r\n\r\n    // Holds all info of an order\r\n    // menuChoices is 2d array for item number and quantity\r\n    struct Order {\r\n        address customer;\r\n        uint tableID;\r\n        uint[2][3] menuChoices;\r\n        uint custRelID;\r\n        uint openRelID;\r\n        State state;\r\n    }\r\n    Order[] orders;\r\n\r\n    /* Modifiers */    \r\n    // Checks if the sender is an owner, cook, waiter or customer\r\n    // *The contractor is ALWAYS the owner, cannot be demoted*  \r\n    modifier isOwner(){\r\n        require(owners[msg.sender] == true || (msg.sender == owner), \"Only an owner can modify this\");\r\n        _;\r\n    }\r\n    modifier isCook(){\r\n        require(cooks[msg.sender] == true, \"Only cooks can modify this\");\r\n        _;\r\n    }\r\n    modifier isWaiter(){\r\n        require(waiters[msg.sender] == true, \"Only an waiters can modify this\");\r\n        _;\r\n    }\r\n    modifier isCustomer(){\r\n        require(custOpenOrders[msg.sender].length != 0, \"No open orders found\");\r\n        _;\r\n    }\r\n    \r\n    /* Initialize Contract */\r\n    /// @notice Initializing the contract\r\n    /// @dev No starting paramaters needed\r\n    constructor() public {\r\n        // Give initial control to contract owner\r\n        // Owner starts with all roles\r\n        owners[msg.sender] = true;\r\n        cooks[msg.sender] = true;\r\n        waiters[msg.sender] = true;\r\n        circuitBreaker = false;\r\n        // Backdoor in case you delete yourself, you will still be an owner\r\n        owner = msg.sender;\r\n\r\n        // Set up the menu\r\n        menu.push(Menu(\"Sandwich\",1));\r\n        menu.push(Menu(\"Taco\", 3));\r\n        menu.push(Menu(\"Chicken\",2));\r\n    }   \r\n\r\n    /// @notice Tells you how many items are on the menu\r\n    /// @return count of menu items\r\n    function getMenuLength() public view returns (uint){\r\n        return (menu.length);\r\n    }\r\n\r\n    /// @notice Get menu item info based on thier index (starting from 0)\r\n    /// @dev Look up by index rather than loops is more economical\r\n    /// @param index The index of the menu item to look up\r\n    /// @return name of item at the index requested\r\n    /// @return cost of the item at index requested\r\n    function getMenu(uint index) public view returns(string memory, uint) {\r\n        return (menu[index].name, menu[index].cost);   \r\n    }\r\n    \r\n    /// @notice Submit order with tablie ID and quantity of each item requested. Payable\r\n    /// @dev The order will be checked to ensure that that correct ammount has been paid\r\n    /// @param tableID The ID of the Table, where the food should be sent\r\n    /// @param qty0 How many orders of food from menu index 0\r\n    /// @param qty1 How many orders of food from menu index 1\r\n    /// @param qty2 How many orders of food from menu index 2\r\n    /// @return orderID The ID of the order placed\r\n    function customerSubmitOrder(uint table, uint qty0, uint qty1, uint qty2) \r\n        public payable returns(uint orderID){\r\n\r\n        //Quick check if the circuit breaker is on\r\n        require(circuitBreaker == false, \"Sorry, currently not taking orders.\");\r\n\r\n        // Prep info to be stored into order[x].memuChoices\r\n        uint[2][3] memory choices;\r\n        choices[0] = [0,qty0];\r\n        choices[1] = [1,qty1];\r\n        choices[2] = [2,qty2];\r\n\r\n        uint _cost;\r\n        _cost = choices[0][1] * menu[0].cost;\r\n        _cost += choices[1][1] * menu[1].cost;\r\n        _cost += choices[2][1] * menu[2].cost;\r\n\r\n        require(_cost >= msg.value, \"Paid too much.\");\r\n        require(_cost <= msg.value, \"Paid too little.\");\r\n\r\n        // Add a reference to the customer relative ID \r\n        uint _custRelID = custOpenOrders[msg.sender].length;\r\n\r\n        // Length - 1; might resut in buffer underflow. Check for 0 value first, then decriment\r\n        if (_custRelID != 0){_custRelID--;}\r\n        uint _openRelID = openOrders.length;\r\n        if (_openRelID != 0){_openRelID--;}\r\n\r\n        // Create records in all 3 variables\r\n        orderID = orders.push(Order(msg.sender,table,choices,_custRelID,_openRelID,State.ordered)) - 1;\r\n        openOrders.push(orderID);\r\n        custOpenOrders[msg.sender].push(orderID);\r\n    }\r\n\r\n    /// @notice Returns the absolute global orderID and quantity of orders on record for this customer\r\n    /// @dev Maps customer relative ID to global ID\r\n    /// @param relativeID The customer relative order ID starting from 0\r\n    /// @return ID The global order ID\r\n    /// @return qty The number of orders that the customer has under thier address\r\n    function customerGetOpenOrders(uint relativeID) public view isCustomer returns(uint ID, uint qty){\r\n        return(custOpenOrders[msg.sender][relativeID], custOpenOrders[msg.sender].length);\r\n    }\r\n    \r\n    /// @notice Updates the status of an order from Ordered to Approved\r\n    /// @param orderID The order ID to be changed to Approved\r\n    /// @return success true if the order change succeeded \r\n    function waiterApprove(uint orderID) public isWaiter {\r\n        require(orderID < orders.length, \"ID is invalid.\");\r\n        require(orders[orderID].state == State.ordered, \"This order is not in the ordered state\");\r\n        orders[orderID].state = State.accpeted;\r\n    }\r\n    \r\n    /// @notice Updates the status of an order from Approved to Cooking\r\n    /// @param orderID The order ID to be changed to Cooking\r\n    /// @return success true if the order change succeeded \r\n    function cookStart(uint orderID) public isCook {\r\n        require(orderID < orders.length, \"ID is invalid.\");\r\n        require(orders[orderID].state == State.accpeted, \"This order is not in the ordered state\");\r\n        orders[orderID].state = State.cooking;\r\n    }\r\n    \r\n    /// @notice Updates the status of an order from Cooking to Ready\r\n    /// @param orderID The order ID to be changed to Ready\r\n    /// @return success true if the order change succeeded \r\n    function cookFinish(uint orderID) public isCook {\r\n        require(orderID < orders.length, \"ID is invalid.\");\r\n        require(orders[orderID].state == State.cooking, \"This order is not in the ordered state\");\r\n        orders[orderID].state = State.ready;\r\n    }\r\n    \r\n    /// @notice Updates the status of an order from Ready to delivered\r\n    /// @param orderID The order ID to be changed to Ready\r\n    /// @return success true if the order change succeeded \r\n    function waiterDeliver(uint orderID) public isWaiter {\r\n        require(orderID < orders.length, \"ID is invalid.\");\r\n        require(orders[orderID].state == State.ready, \"This order is not in the ordered state.\");\r\n        orders[orderID].state = State.delivered;\r\n\r\n        // Clean up custOpenOrders state variable\r\n        address _customer = orders[orderID].customer;\r\n        uint _custRelID = orders[orderID].custRelID;\r\n        uint _custLastOrder = custOpenOrders[_customer].length - 1;\r\n        // Check to see if the relID is the last in the array\r\n        if (_custLastOrder != _custRelID){\r\n            // If not, then copy the last item overwriting the one being deleted\r\n            custOpenOrders[_customer][_custRelID] = custOpenOrders[_customer][_custRelID];            \r\n            // Get absolute order ID of the moved item\r\n            uint _absOrderID = custOpenOrders[_customer][_custRelID];\r\n            // Adjust the info in order state variable\r\n            orders[_absOrderID].custRelID = _custRelID;\r\n        }\r\n        // Shrink the array clearing moved ID or said relID\r\n        custOpenOrders[_customer].length--;\r\n\r\n        // Clean up openOrders state variable\r\n        uint _openRelID = orders[orderID].openRelID;\r\n        uint _openLastOrder = openOrders.length - 1;\r\n        // Check to see if the relID is the last in the array\r\n        if (_openRelID != _openLastOrder){\r\n            // If not, then copy the last item overwriting the one being deleted\r\n            openOrders[_openRelID] = openOrders[_openLastOrder];            \r\n        }\r\n        // Shrink the array clearing moved ID or said relID\r\n        openOrders.length--;\r\n    }\r\n\r\n    /// @notice Tells you the state of an odrer 0:Ordered 1:Approved 2:Cooking 3:Ready 4:Delivered\r\n    /// @param orderID The ID of the order that is being looked up\r\n    /// @return state The state of the order. 0:Ordered 1:Approved 2:Cooking 3:Ready 4:Delivered\r\n    function getOrderStatus(uint orderID) public view isCustomer returns(uint state){\r\n        require(orderID < orders.length, \"ID is invalid.\");\r\n        return(uint(orders[orderID].state));\r\n    }\r\n\r\n    /// @notice Tells you the state of an odrer 0:Ordered 1:Approved 2:Cooking 3:Ready 4:Delivered\r\n    /// @param orderID The ID of the order that is being looked up\r\n    /// @return state The state of the order. 0:Ordered 1:Approved 2:Cooking 3:Ready 4:Delivered\r\n    function getOpenOrders(uint relIndex) public view returns (uint ID, uint qty){\r\n        require(relIndex < openOrders.length, \"ID is invalid.\");\r\n        return(openOrders[relIndex],openOrders.length);\r\n    }\r\n\r\n    /// @notice Adds the role of Owner to the specified address\r\n    /// @param ownerAddress The address of the new Owner\r\n    /// @return success true if the address was promoted to the new role \r\n    function  addOwner(address ownerAddress) public isOwner returns (bool){\r\n        owners[ownerAddress] = true;\r\n        return(true);\r\n    }\r\n    /// @notice Adds the role of Waiter to the specified address\r\n    /// @param addWaiter The address of the new Waiter\r\n    /// @return success true if the address was promoted to the new role \r\n    function  addWaiter(address waiterAddress) public returns (bool success){\r\n        waiters[waiterAddress] = true;\r\n        return(true);\r\n    }\r\n    /// @notice Adds the role of Cook to the specified address\r\n    /// @param addCook The address of the new Cook\r\n    /// @return success true if the address was promoted to the new role \r\n    function  addCook(address cookAddress) public returns (bool success){\r\n        cooks[cookAddress] = true;\r\n        return(true);\r\n    }\r\n    /// @notice Removes the role of Owner to the specified address\r\n    /// @param ownerAddress The address of the Owner to be removed\r\n    /// @return success true if the address was removed from the role \r\n    function  removeOwner(address ownerAddress) public returns (bool success){\r\n        owners[ownerAddress] = false;\r\n        return(true);\r\n    }\r\n    /// @notice Removes the role of Waiter to the specified address\r\n    /// @param waiterAddress The address of the Waiter to be removed\r\n    /// @return success true if the address was removed from the role \r\n    function  removeWaiter(address waiterAddress) public returns (bool success){\r\n        waiters[waiterAddress] = false;\r\n        return(true);\r\n    }\r\n    /// @notice Removes the role of Cook to the specified address\r\n    /// @param cookAddress The address of the Cook to be removed\r\n    /// @return success true if the address was removed from the role \r\n    function  removeCook(address cookAddress) public returns (bool success){\r\n        cooks[cookAddress] = false;\r\n        return(true);\r\n    }\r\n\r\n    /// @notice Checks to see if the requested address is a waiter\r\n    /// @param queryAddress The address that you want to confirm\r\n    /// @return success true if address is a member of waiters\r\n    function  getWaiter(address queryAddress) public view returns (bool success){\r\n        return(waiters[queryAddress]);\r\n    }\r\n\r\n    /// @notice Checks to see if the requested address is a cook\r\n    /// @param queryAddress The address that you want to confirm\r\n    /// @return success true if address is a member of cooks\r\n    function  getCook(address queryAddress) public view returns (bool success){\r\n        return(cooks[queryAddress]);\r\n    }\r\n\r\n    /// @notice Checks to see if the requested address is an owner\r\n    /// @param queryAddress The address that you want to confirm\r\n    /// @return success true if address is a member of owners\r\n    function  getOwner(address queryAddress) public view returns (bool success){\r\n        return(owners[queryAddress]);\r\n    }\r\n\r\n    /// @notice Checks to see if the requested address is a waiter\r\n    /// @param queryAddress The address that you want to confirm\r\n    /// @return success true if address is a member of waiters\r\n    function withdraw(uint withdrawAmount) public isOwner {\r\n        require (address(this).balance >= withdrawAmount, \"Requested more money than the contract has.\");\r\n        msg.sender.transfer(withdrawAmount);\r\n    }\r\n\r\n    /// @notice Destroy contract\r\n    /// @dev Any user in the owners map can destroy\r\n    function destroyContract() public isOwner{\r\n        selfdestruct(msg.sender);\r\n    }\r\n\r\n    /// @notice Disable circuit breaker and prevent any additional orders from being placed\r\n    function disableBreaker() public isOwner{\r\n        circuitBreaker = false;\r\n    }\r\n\r\n    /// @notice Enable circuit breaker and prevent any additional orders from being placed\r\n    function enableBreaker() public isOwner{\r\n        circuitBreaker = true;\r\n    }\r\n\r\n    /// @notice Fallback function\r\n    /// @dev No params nor returns. This is here just in case no functions are called\r\n    function () external payable{}\r\n\r\n\r\n} // End contract",
  "sourcePath": "/media/sf_GitHub/BiteChain/contracts/BiteChain.sol",
  "compiler": {
    "name": "solc",
    "version": "0.5.0+commit.1d4f565a.Emscripten.clang"
  },
  "schemaVersion": "3.0.1",
  "updatedAt": "2019-01-23T20:22:24.521Z",
  "devdoc": {
    "details": "All function calls are currently implement without side effects",
    "methods": {
      "addCook(address)": {
        "return": "success true if the address was promoted to the new role "
      },
      "addOwner(address)": {
        "return": "success true if the address was promoted to the new role "
      },
      "addWaiter(address)": {
        "return": "success true if the address was promoted to the new role "
      },
      "constructor": {
        "details": "No starting paramaters needed"
      },
      "cookFinish(uint256)": {
        "return": "success true if the order change succeeded "
      },
      "cookStart(uint256)": {
        "return": "success true if the order change succeeded "
      },
      "customerGetOpenOrders(uint256)": {
        "return": "qty The number of orders that the customer has under thier address"
      },
      "customerSubmitOrder(uint256,uint256,uint256,uint256)": {
        "return": "orderID The ID of the order placed"
      },
      "destroyContract()": {
        "details": "Any user in the owners map can destroy"
      },
      "getCook(address)": {
        "return": "success true if address is a member of cooks"
      },
      "getMenu(uint256)": {
        "return": "cost of the item at index requested"
      },
      "getMenuLength()": {
        "return": "count of menu items"
      },
      "getOpenOrders(uint256)": {
        "return": "state The state of the order. 0:Ordered 1:Approved 2:Cooking 3:Ready 4:Delivered"
      },
      "getOrderStatus(uint256)": {
        "return": "state The state of the order. 0:Ordered 1:Approved 2:Cooking 3:Ready 4:Delivered"
      },
      "getOwner(address)": {
        "return": "success true if address is a member of owners"
      },
      "getWaiter(address)": {
        "return": "success true if address is a member of waiters"
      },
      "removeCook(address)": {
        "return": "success true if the address was removed from the role "
      },
      "removeOwner(address)": {
        "return": "success true if the address was removed from the role "
      },
      "removeWaiter(address)": {
        "return": "success true if the address was removed from the role "
      },
      "waiterApprove(uint256)": {
        "return": "success true if the order change succeeded "
      },
      "waiterDeliver(uint256)": {
        "return": "success true if the order change succeeded "
      },
      "withdraw(uint256)": {
        "return": "success true if address is a member of waiters"
      }
    }
  },
  "userdoc": {
    "methods": {
      "disableBreaker()": {
        "notice": "Disable circuit breaker and prevent any additional orders from being placed"
      },
      "enableBreaker()": {
        "notice": "Enable circuit breaker and prevent any additional orders from being placed"
      }
    }
  }
}