{
  "contractName": "BiteChain",
  "abi": [
    {
      "inputs": [],
      "payable": false,
      "stateMutability": "nonpayable",
      "type": "constructor",
      "signature": "constructor"
    },
    {
      "payable": true,
      "stateMutability": "payable",
      "type": "fallback"
    },
    {
      "constant": true,
      "inputs": [],
      "name": "getMenuLength",
      "outputs": [
        {
          "name": "",
          "type": "uint256"
        }
      ],
      "payable": false,
      "stateMutability": "view",
      "type": "function",
      "signature": "0x125ba977"
    },
    {
      "constant": true,
      "inputs": [
        {
          "name": "index",
          "type": "uint256"
        }
      ],
      "name": "getMenu",
      "outputs": [
        {
          "name": "",
          "type": "string"
        },
        {
          "name": "",
          "type": "uint256"
        }
      ],
      "payable": false,
      "stateMutability": "view",
      "type": "function",
      "signature": "0x842bb5b2"
    },
    {
      "constant": false,
      "inputs": [
        {
          "name": "table",
          "type": "uint256"
        },
        {
          "name": "qty0",
          "type": "uint256"
        },
        {
          "name": "qty1",
          "type": "uint256"
        },
        {
          "name": "qty2",
          "type": "uint256"
        }
      ],
      "name": "customerSubmitOrder",
      "outputs": [
        {
          "name": "orderID",
          "type": "uint256"
        }
      ],
      "payable": true,
      "stateMutability": "payable",
      "type": "function",
      "signature": "0x95af73a2"
    },
    {
      "constant": true,
      "inputs": [
        {
          "name": "relativeID",
          "type": "uint256"
        }
      ],
      "name": "customerGetOpenOrders",
      "outputs": [
        {
          "name": "ID",
          "type": "uint256"
        },
        {
          "name": "qty",
          "type": "uint256"
        }
      ],
      "payable": false,
      "stateMutability": "view",
      "type": "function",
      "signature": "0x8fa37437"
    },
    {
      "constant": false,
      "inputs": [
        {
          "name": "orderID",
          "type": "uint256"
        }
      ],
      "name": "waiterApprove",
      "outputs": [],
      "payable": false,
      "stateMutability": "nonpayable",
      "type": "function",
      "signature": "0x140696b8"
    },
    {
      "constant": false,
      "inputs": [
        {
          "name": "orderID",
          "type": "uint256"
        }
      ],
      "name": "cookStart",
      "outputs": [],
      "payable": false,
      "stateMutability": "nonpayable",
      "type": "function",
      "signature": "0xe0ea38ad"
    },
    {
      "constant": false,
      "inputs": [
        {
          "name": "orderID",
          "type": "uint256"
        }
      ],
      "name": "cookFinish",
      "outputs": [],
      "payable": false,
      "stateMutability": "nonpayable",
      "type": "function",
      "signature": "0x2bc4acea"
    },
    {
      "constant": false,
      "inputs": [
        {
          "name": "orderID",
          "type": "uint256"
        }
      ],
      "name": "waiterDeliver",
      "outputs": [],
      "payable": false,
      "stateMutability": "nonpayable",
      "type": "function",
      "signature": "0x58220148"
    },
    {
      "constant": true,
      "inputs": [
        {
          "name": "orderID",
          "type": "uint256"
        }
      ],
      "name": "getOrderStatus",
      "outputs": [
        {
          "name": "state",
          "type": "uint256"
        }
      ],
      "payable": false,
      "stateMutability": "view",
      "type": "function",
      "signature": "0x45fa8aae"
    },
    {
      "constant": true,
      "inputs": [
        {
          "name": "relIndex",
          "type": "uint256"
        }
      ],
      "name": "getOpenOrders",
      "outputs": [
        {
          "name": "ID",
          "type": "uint256"
        },
        {
          "name": "qty",
          "type": "uint256"
        }
      ],
      "payable": false,
      "stateMutability": "view",
      "type": "function",
      "signature": "0x50710c97"
    },
    {
      "constant": false,
      "inputs": [
        {
          "name": "ownerAddress",
          "type": "address"
        }
      ],
      "name": "addOwner",
      "outputs": [
        {
          "name": "",
          "type": "bool"
        }
      ],
      "payable": false,
      "stateMutability": "nonpayable",
      "type": "function",
      "signature": "0x7065cb48"
    },
    {
      "constant": false,
      "inputs": [
        {
          "name": "waiterAddress",
          "type": "address"
        }
      ],
      "name": "addWaiter",
      "outputs": [
        {
          "name": "success",
          "type": "bool"
        }
      ],
      "payable": false,
      "stateMutability": "nonpayable",
      "type": "function",
      "signature": "0x8156a01c"
    },
    {
      "constant": false,
      "inputs": [
        {
          "name": "cookAddress",
          "type": "address"
        }
      ],
      "name": "addCook",
      "outputs": [
        {
          "name": "success",
          "type": "bool"
        }
      ],
      "payable": false,
      "stateMutability": "nonpayable",
      "type": "function",
      "signature": "0x088ed5b5"
    },
    {
      "constant": false,
      "inputs": [
        {
          "name": "ownerAddress",
          "type": "address"
        }
      ],
      "name": "removeOwner",
      "outputs": [
        {
          "name": "success",
          "type": "bool"
        }
      ],
      "payable": false,
      "stateMutability": "nonpayable",
      "type": "function",
      "signature": "0x173825d9"
    },
    {
      "constant": false,
      "inputs": [
        {
          "name": "waiterAddress",
          "type": "address"
        }
      ],
      "name": "removeWaiter",
      "outputs": [
        {
          "name": "success",
          "type": "bool"
        }
      ],
      "payable": false,
      "stateMutability": "nonpayable",
      "type": "function",
      "signature": "0x9d61a714"
    },
    {
      "constant": false,
      "inputs": [
        {
          "name": "cookAddress",
          "type": "address"
        }
      ],
      "name": "removeCook",
      "outputs": [
        {
          "name": "success",
          "type": "bool"
        }
      ],
      "payable": false,
      "stateMutability": "nonpayable",
      "type": "function",
      "signature": "0x268cfbaf"
    },
    {
      "constant": true,
      "inputs": [
        {
          "name": "queryAddress",
          "type": "address"
        }
      ],
      "name": "getWaiter",
      "outputs": [
        {
          "name": "success",
          "type": "bool"
        }
      ],
      "payable": false,
      "stateMutability": "view",
      "type": "function",
      "signature": "0xf3e796ac"
    },
    {
      "constant": true,
      "inputs": [
        {
          "name": "queryAddress",
          "type": "address"
        }
      ],
      "name": "getCook",
      "outputs": [
        {
          "name": "success",
          "type": "bool"
        }
      ],
      "payable": false,
      "stateMutability": "view",
      "type": "function",
      "signature": "0x6195ef45"
    },
    {
      "constant": true,
      "inputs": [
        {
          "name": "queryAddress",
          "type": "address"
        }
      ],
      "name": "getOwner",
      "outputs": [
        {
          "name": "success",
          "type": "bool"
        }
      ],
      "payable": false,
      "stateMutability": "view",
      "type": "function",
      "signature": "0xfa544161"
    },
    {
      "constant": false,
      "inputs": [
        {
          "name": "withdrawAmount",
          "type": "uint256"
        }
      ],
      "name": "withdraw",
      "outputs": [],
      "payable": false,
      "stateMutability": "nonpayable",
      "type": "function",
      "signature": "0x2e1a7d4d"
    }
  ],
  "bytecode": "0x60806040523480156200001157600080fd5b506001600360003373ffffffffffffffffffffffffffffffffffffffff1673ffffffffffffffffffffffffffffffffffffffff16815260200190815260200160002060006101000a81548160ff0219169083151502179055506001600460003373ffffffffffffffffffffffffffffffffffffffff1673ffffffffffffffffffffffffffffffffffffffff16815260200190815260200160002060006101000a81548160ff0219169083151502179055506001600560003373ffffffffffffffffffffffffffffffffffffffff1673ffffffffffffffffffffffffffffffffffffffff16815260200190815260200160002060006101000a81548160ff021916908315150217905550336000806101000a81548173ffffffffffffffffffffffffffffffffffffffff021916908373ffffffffffffffffffffffffffffffffffffffff160217905550600660408051908101604052806040805190810160405280600881526020017f53616e647769636800000000000000000000000000000000000000000000000081525081526020016001815250908060018154018082558091505090600182039060005260206000209060020201600090919290919091506000820151816000019080519060200190620001f09291906200034c565b5060208201518160010155505050600660408051908101604052806040805190810160405280600481526020017f5461636f0000000000000000000000000000000000000000000000000000000081525081526020016003815250908060018154018082558091505090600182039060005260206000209060020201600090919290919091506000820151816000019080519060200190620002949291906200034c565b5060208201518160010155505050600660408051908101604052806040805190810160405280600781526020017f436869636b656e0000000000000000000000000000000000000000000000000081525081526020016002815250908060018154018082558091505090600182039060005260206000209060020201600090919290919091506000820151816000019080519060200190620003389291906200034c565b5060208201518160010155505050620003fb565b828054600181600116156101000203166002900490600052602060002090601f016020900481019282601f106200038f57805160ff1916838001178555620003c0565b82800160010185558215620003c0579182015b82811115620003bf578251825591602001919060010190620003a2565b5b509050620003cf9190620003d3565b5090565b620003f891905b80821115620003f4576000816000905550600101620003da565b5090565b90565b6125f2806200040b6000396000f3fe608060405260043610610112576000357c0100000000000000000000000000000000000000000000000000000000900463ffffffff168063088ed5b514610114578063125ba9771461017d578063140696b8146101a8578063173825d9146101e3578063268cfbaf1461024c5780632bc4acea146102b55780632e1a7d4d146102f057806345fa8aae1461032b57806350710c971461037a57806358220148146103d05780636195ef451461040b5780637065cb48146104745780638156a01c146104dd578063842bb5b2146105465780638fa374371461060157806395af73a2146106575780639d61a714146106b7578063e0ea38ad14610720578063f3e796ac1461075b578063fa544161146107c4575b005b34801561012057600080fd5b506101636004803603602081101561013757600080fd5b81019080803573ffffffffffffffffffffffffffffffffffffffff16906020019092919050505061082d565b604051808215151515815260200191505060405180910390f35b34801561018957600080fd5b50610192610890565b6040518082815260200191505060405180910390f35b3480156101b457600080fd5b506101e1600480360360208110156101cb57600080fd5b810190808035906020019092919050505061089d565b005b3480156101ef57600080fd5b506102326004803603602081101561020657600080fd5b81019080803573ffffffffffffffffffffffffffffffffffffffff169060200190929190505050610b07565b604051808215151515815260200191505060405180910390f35b34801561025857600080fd5b5061029b6004803603602081101561026f57600080fd5b81019080803573ffffffffffffffffffffffffffffffffffffffff169060200190929190505050610b69565b604051808215151515815260200191505060405180910390f35b3480156102c157600080fd5b506102ee600480360360208110156102d857600080fd5b8101908080359060200190929190505050610bcb565b005b3480156102fc57600080fd5b506103296004803603602081101561031357600080fd5b8101908080359060200190929190505050610e35565b005b34801561033757600080fd5b506103646004803603602081101561034e57600080fd5b8101908080359060200190929190505050611053565b6040518082815260200191505060405180910390f35b34801561038657600080fd5b506103b36004803603602081101561039d57600080fd5b81019080803590602001909291905050506111cb565b604051808381526020018281526020019250505060405180910390f35b3480156103dc57600080fd5b50610409600480360360208110156103f357600080fd5b8101908080359060200190929190505050611273565b005b34801561041757600080fd5b5061045a6004803603602081101561042e57600080fd5b81019080803573ffffffffffffffffffffffffffffffffffffffff1690602001909291905050506117ad565b604051808215151515815260200191505060405180910390f35b34801561048057600080fd5b506104c36004803603602081101561049757600080fd5b81019080803573ffffffffffffffffffffffffffffffffffffffff169060200190929190505050611803565b604051808215151515815260200191505060405180910390f35b3480156104e957600080fd5b5061052c6004803603602081101561050057600080fd5b81019080803573ffffffffffffffffffffffffffffffffffffffff169060200190929190505050611985565b604051808215151515815260200191505060405180910390f35b34801561055257600080fd5b5061057f6004803603602081101561056957600080fd5b81019080803590602001909291905050506119e8565b6040518080602001838152602001828103825284818151815260200191508051906020019080838360005b838110156105c55780820151818401526020810190506105aa565b50505050905090810190601f1680156105f25780820380516001836020036101000a031916815260200191505b50935050505060405180910390f35b34801561060d57600080fd5b5061063a6004803603602081101561062457600080fd5b8101908080359060200190929190505050611ad2565b604051808381526020018281526020019250505060405180910390f35b6106a16004803603608081101561066d57600080fd5b8101908080359060200190929190803590602001909291908035906020019092919080359060200190929190505050611c33565b6040518082815260200191505060405180910390f35b3480156106c357600080fd5b50610706600480360360208110156106da57600080fd5b81019080803573ffffffffffffffffffffffffffffffffffffffff1690602001909291905050506120e2565b604051808215151515815260200191505060405180910390f35b34801561072c57600080fd5b506107596004803603602081101561074357600080fd5b8101908080359060200190929190505050612144565b005b34801561076757600080fd5b506107aa6004803603602081101561077e57600080fd5b81019080803573ffffffffffffffffffffffffffffffffffffffff1690602001909291905050506123ae565b604051808215151515815260200191505060405180910390f35b3480156107d057600080fd5b50610813600480360360208110156107e757600080fd5b81019080803573ffffffffffffffffffffffffffffffffffffffff169060200190929190505050612404565b604051808215151515815260200191505060405180910390f35b60006001600460008473ffffffffffffffffffffffffffffffffffffffff1673ffffffffffffffffffffffffffffffffffffffff16815260200190815260200160002060006101000a81548160ff02191690831515021790555060019050919050565b6000600680549050905090565b60011515600560003373ffffffffffffffffffffffffffffffffffffffff1673ffffffffffffffffffffffffffffffffffffffff16815260200190815260200160002060009054906101000a900460ff161515141515610965576040517f08c379a000000000000000000000000000000000000000000000000000000000815260040180806020018281038252601f8152602001807f4f6e6c7920616e20776169746572732063616e206d6f6469667920746869730081525060200191505060405180910390fd5b600780549050811015156109e1576040517f08c379a000000000000000000000000000000000000000000000000000000000815260040180806020018281038252600e8152602001807f494420697320696e76616c69642e00000000000000000000000000000000000081525060200191505060405180910390fd5b600060048111156109ee57fe5b6007828154811015156109fd57fe5b90600052602060002090600b0201600a0160009054906101000a900460ff166004811115610a2757fe5b141515610ac2576040517f08c379a00000000000000000000000000000000000000000000000000000000081526004018080602001828103825260268152602001807f54686973206f72646572206973206e6f7420696e20746865206f72646572656481526020017f207374617465000000000000000000000000000000000000000000000000000081525060400191505060405180910390fd5b6001600782815481101515610ad357fe5b90600052602060002090600b0201600a0160006101000a81548160ff02191690836004811115610aff57fe5b021790555050565b600080600360008473ffffffffffffffffffffffffffffffffffffffff1673ffffffffffffffffffffffffffffffffffffffff16815260200190815260200160002060006101000a81548160ff02191690831515021790555060019050919050565b600080600460008473ffffffffffffffffffffffffffffffffffffffff1673ffffffffffffffffffffffffffffffffffffffff16815260200190815260200160002060006101000a81548160ff02191690831515021790555060019050919050565b60011515600460003373ffffffffffffffffffffffffffffffffffffffff1673ffffffffffffffffffffffffffffffffffffffff16815260200190815260200160002060009054906101000a900460ff161515141515610c93576040517f08c379a000000000000000000000000000000000000000000000000000000000815260040180806020018281038252601a8152602001807f4f6e6c7920636f6f6b732063616e206d6f64696679207468697300000000000081525060200191505060405180910390fd5b60078054905081101515610d0f576040517f08c379a000000000000000000000000000000000000000000000000000000000815260040180806020018281038252600e8152602001807f494420697320696e76616c69642e00000000000000000000000000000000000081525060200191505060405180910390fd5b60026004811115610d1c57fe5b600782815481101515610d2b57fe5b90600052602060002090600b0201600a0160009054906101000a900460ff166004811115610d5557fe5b141515610df0576040517f08c379a00000000000000000000000000000000000000000000000000000000081526004018080602001828103825260268152602001807f54686973206f72646572206973206e6f7420696e20746865206f72646572656481526020017f207374617465000000000000000000000000000000000000000000000000000081525060400191505060405180910390fd5b6003600782815481101515610e0157fe5b90600052602060002090600b0201600a0160006101000a81548160ff02191690836004811115610e2d57fe5b021790555050565b60011515600360003373ffffffffffffffffffffffffffffffffffffffff1673ffffffffffffffffffffffffffffffffffffffff16815260200190815260200160002060009054906101000a900460ff1615151480610ee057506000809054906101000a900473ffffffffffffffffffffffffffffffffffffffff1673ffffffffffffffffffffffffffffffffffffffff163373ffffffffffffffffffffffffffffffffffffffff16145b1515610f54576040517f08c379a000000000000000000000000000000000000000000000000000000000815260040180806020018281038252601d8152602001807f4f6e6c7920616e206f776e65722063616e206d6f64696679207468697300000081525060200191505060405180910390fd5b803073ffffffffffffffffffffffffffffffffffffffff163110151515611009576040517f08c379a000000000000000000000000000000000000000000000000000000000815260040180806020018281038252602a8152602001807f526571756573746564206d6f7265206d6f6e6579207468612074686520636f6e81526020017f7472616374206861732e0000000000000000000000000000000000000000000081525060400191505060405180910390fd5b3373ffffffffffffffffffffffffffffffffffffffff166108fc829081150290604051600060405180830381858888f1935050505015801561104f573d6000803e3d6000fd5b5050565b600080600260003373ffffffffffffffffffffffffffffffffffffffff1673ffffffffffffffffffffffffffffffffffffffff168152602001908152602001600020805490501415151561110f576040517f08c379a00000000000000000000000000000000000000000000000000000000081526004018080602001828103825260148152602001807f4e6f206f70656e206f726465727320666f756e6400000000000000000000000081525060200191505060405180910390fd5b6007805490508210151561118b576040517f08c379a000000000000000000000000000000000000000000000000000000000815260040180806020018281038252600e8152602001807f494420697320696e76616c69642e00000000000000000000000000000000000081525060200191505060405180910390fd5b60078281548110151561119a57fe5b90600052602060002090600b0201600a0160009054906101000a900460ff1660048111156111c457fe5b9050919050565b6000806001805490508310151561124a576040517f08c379a000000000000000000000000000000000000000000000000000000000815260040180806020018281038252600e8152602001807f494420697320696e76616c69642e00000000000000000000000000000000000081525060200191505060405180910390fd5b60018381548110151561125957fe5b906000526020600020015460018054905091509150915091565b60011515600560003373ffffffffffffffffffffffffffffffffffffffff1673ffffffffffffffffffffffffffffffffffffffff16815260200190815260200160002060009054906101000a900460ff16151514151561133b576040517f08c379a000000000000000000000000000000000000000000000000000000000815260040180806020018281038252601f8152602001807f4f6e6c7920616e20776169746572732063616e206d6f6469667920746869730081525060200191505060405180910390fd5b600780549050811015156113b7576040517f08c379a000000000000000000000000000000000000000000000000000000000815260040180806020018281038252600e8152602001807f494420697320696e76616c69642e00000000000000000000000000000000000081525060200191505060405180910390fd5b600360048111156113c457fe5b6007828154811015156113d357fe5b90600052602060002090600b0201600a0160009054906101000a900460ff1660048111156113fd57fe5b141515611498576040517f08c379a00000000000000000000000000000000000000000000000000000000081526004018080602001828103825260278152602001807f54686973206f72646572206973206e6f7420696e20746865206f72646572656481526020017f2073746174652e0000000000000000000000000000000000000000000000000081525060400191505060405180910390fd5b60046007828154811015156114a957fe5b90600052602060002090600b0201600a0160006101000a81548160ff021916908360048111156114d557fe5b021790555060006007828154811015156114eb57fe5b90600052602060002090600b020160000160009054906101000a900473ffffffffffffffffffffffffffffffffffffffff169050600060078381548110151561153057fe5b90600052602060002090600b020160080154905060006001600260008573ffffffffffffffffffffffffffffffffffffffff1673ffffffffffffffffffffffffffffffffffffffff1681526020019081526020016000208054905003905081811415156116ca57600260008473ffffffffffffffffffffffffffffffffffffffff1673ffffffffffffffffffffffffffffffffffffffff168152602001908152602001600020828154811015156115e357fe5b9060005260206000200154600260008573ffffffffffffffffffffffffffffffffffffffff1673ffffffffffffffffffffffffffffffffffffffff1681526020019081526020016000208381548110151561163a57fe5b90600052602060002001819055506000600260008573ffffffffffffffffffffffffffffffffffffffff1673ffffffffffffffffffffffffffffffffffffffff1681526020019081526020016000208381548110151561169657fe5b90600052602060002001549050826007828154811015156116b357fe5b90600052602060002090600b020160080181905550505b600260008473ffffffffffffffffffffffffffffffffffffffff1673ffffffffffffffffffffffffffffffffffffffff16815260200190815260200160002080548091906001900361171c919061245a565b50600060078581548110151561172e57fe5b90600052602060002090600b0201600901549050600060018080549050039050808214151561178f5760018181548110151561176657fe5b906000526020600020015460018381548110151561178057fe5b90600052602060002001819055505b60018054809190600190036117a4919061245a565b50505050505050565b6000600460008373ffffffffffffffffffffffffffffffffffffffff1673ffffffffffffffffffffffffffffffffffffffff16815260200190815260200160002060009054906101000a900460ff169050919050565b600060011515600360003373ffffffffffffffffffffffffffffffffffffffff1673ffffffffffffffffffffffffffffffffffffffff16815260200190815260200160002060009054906101000a900460ff16151514806118b057506000809054906101000a900473ffffffffffffffffffffffffffffffffffffffff1673ffffffffffffffffffffffffffffffffffffffff163373ffffffffffffffffffffffffffffffffffffffff16145b1515611924576040517f08c379a000000000000000000000000000000000000000000000000000000000815260040180806020018281038252601d8152602001807f4f6e6c7920616e206f776e65722063616e206d6f64696679207468697300000081525060200191505060405180910390fd5b6001600360008473ffffffffffffffffffffffffffffffffffffffff1673ffffffffffffffffffffffffffffffffffffffff16815260200190815260200160002060006101000a81548160ff02191690831515021790555060019050919050565b60006001600560008473ffffffffffffffffffffffffffffffffffffffff1673ffffffffffffffffffffffffffffffffffffffff16815260200190815260200160002060006101000a81548160ff02191690831515021790555060019050919050565b606060006006838154811015156119fb57fe5b9060005260206000209060020201600001600684815481101515611a1b57fe5b906000526020600020906002020160010154818054600181600116156101000203166002900480601f016020809104026020016040519081016040528092919081815260200182805460018160011615610100020316600290048015611ac25780601f10611a9757610100808354040283529160200191611ac2565b820191906000526020600020905b815481529060010190602001808311611aa557829003601f168201915b5050505050915091509150915091565b6000806000600260003373ffffffffffffffffffffffffffffffffffffffff1673ffffffffffffffffffffffffffffffffffffffff1681526020019081526020016000208054905014151515611b90576040517f08c379a00000000000000000000000000000000000000000000000000000000081526004018080602001828103825260148152602001807f4e6f206f70656e206f726465727320666f756e6400000000000000000000000081525060200191505060405180910390fd5b600260003373ffffffffffffffffffffffffffffffffffffffff1673ffffffffffffffffffffffffffffffffffffffff16815260200190815260200160002083815481101515611bdc57fe5b9060005260206000200154600260003373ffffffffffffffffffffffffffffffffffffffff1673ffffffffffffffffffffffffffffffffffffffff1681526020019081526020016000208054905091509150915091565b6000611c3d612486565b60408051908101604052806000815260200186815250816000600381101515611c6257fe5b602002018190525060408051908101604052806001815260200185815250816001600381101515611c8f57fe5b602002018190525060408051908101604052806002815260200184815250816002600381101515611cbc57fe5b6020020181905250600060066000815481101515611cd657fe5b906000526020600020906002020160010154826000600381101515611cf757fe5b60200201516001600281101515611d0a57fe5b602002015102905060066001815481101515611d2257fe5b906000526020600020906002020160010154826001600381101515611d4357fe5b60200201516001600281101515611d5657fe5b6020020151028101905060066002815481101515611d7057fe5b906000526020600020906002020160010154826002600381101515611d9157fe5b60200201516001600281101515611da457fe5b60200201510281019050348111151515611e26576040517f08c379a000000000000000000000000000000000000000000000000000000000815260040180806020018281038252600e8152602001807f5061696420746f6f206d7563682e00000000000000000000000000000000000081525060200191505060405180910390fd5b348110151515611e9e576040517f08c379a00000000000000000000000000000000000000000000000000000000081526004018080602001828103825260108152602001807f5061696420746f6f206c6974746c652e0000000000000000000000000000000081525060200191505060405180910390fd5b6000600260003373ffffffffffffffffffffffffffffffffffffffff1673ffffffffffffffffffffffffffffffffffffffff168152602001908152602001600020805490509050600081141515611ef9578080600190039150505b60006001805490509050600081141515611f17578080600190039150505b6001600760c0604051908101604052803373ffffffffffffffffffffffffffffffffffffffff1681526020018c815260200187815260200185815260200184815260200160006004811115611f6857fe5b8152509080600181540180825580915050906001820390600052602060002090600b02016000909192909190915060008201518160000160006101000a81548173ffffffffffffffffffffffffffffffffffffffff021916908373ffffffffffffffffffffffffffffffffffffffff16021790555060208201518160010155604082015181600201906003611ffe9291906124b4565b50606082015181600801556080820151816009015560a082015181600a0160006101000a81548160ff0219169083600481111561203757fe5b021790555050500394506001859080600181540180825580915050906001820390600052602060002001600090919290919091505550600260003373ffffffffffffffffffffffffffffffffffffffff1673ffffffffffffffffffffffffffffffffffffffff16815260200190815260200160002085908060018154018082558091505090600182039060005260206000200160009091929091909150555050505050949350505050565b600080600560008473ffffffffffffffffffffffffffffffffffffffff1673ffffffffffffffffffffffffffffffffffffffff16815260200190815260200160002060006101000a81548160ff02191690831515021790555060019050919050565b60011515600460003373ffffffffffffffffffffffffffffffffffffffff1673ffffffffffffffffffffffffffffffffffffffff16815260200190815260200160002060009054906101000a900460ff16151514151561220c576040517f08c379a000000000000000000000000000000000000000000000000000000000815260040180806020018281038252601a8152602001807f4f6e6c7920636f6f6b732063616e206d6f64696679207468697300000000000081525060200191505060405180910390fd5b60078054905081101515612288576040517f08c379a000000000000000000000000000000000000000000000000000000000815260040180806020018281038252600e8152602001807f494420697320696e76616c69642e00000000000000000000000000000000000081525060200191505060405180910390fd5b6001600481111561229557fe5b6007828154811015156122a457fe5b90600052602060002090600b0201600a0160009054906101000a900460ff1660048111156122ce57fe5b141515612369576040517f08c379a00000000000000000000000000000000000000000000000000000000081526004018080602001828103825260268152602001807f54686973206f72646572206973206e6f7420696e20746865206f72646572656481526020017f207374617465000000000000000000000000000000000000000000000000000081525060400191505060405180910390fd5b600260078281548110151561237a57fe5b90600052602060002090600b0201600a0160006101000a81548160ff021916908360048111156123a657fe5b021790555050565b6000600560008373ffffffffffffffffffffffffffffffffffffffff1673ffffffffffffffffffffffffffffffffffffffff16815260200190815260200160002060009054906101000a900460ff169050919050565b6000600360008373ffffffffffffffffffffffffffffffffffffffff1673ffffffffffffffffffffffffffffffffffffffff16815260200190815260200160002060009054906101000a900460ff169050919050565b815481835581811115612481578183600052602060002091820191016124809190612505565b5b505050565b60c0604051908101604052806003905b61249e61252a565b8152602001906001900390816124965790505090565b82600360020281019282156124f4579160200282015b828111156124f3578251829060026124e392919061254c565b50916020019190600201906124ca565b5b509050612501919061258c565b5090565b61252791905b8082111561252357600081600090555060010161250b565b5090565b90565b6040805190810160405280600290602082028038833980820191505090505090565b826002810192821561257b579160200282015b8281111561257a57825182559160200191906001019061255f565b5b5090506125889190612505565b5090565b6125b591905b808211156125b157600081816125a891906125b8565b50600201612592565b5090565b90565b50600081556001016000905556fea165627a7a72305820ecda5f005cfbe9f575e8b07ad2b555efc85d8d9ce151d280c2cb55add7a943fb0029",
  "source": "pragma solidity ^0.5.0;\r\n\r\n/// @title A restaurant order managment system\r\n/// @author Nanoshi\r\n/// @notice You can use this contract for testing purposes only\r\n/// @dev All function calls are currently implement without side effects\r\ncontract BiteChain {\r\n\r\n    /* State Variables */\r\n    address owner;\r\n    // Tracks open orders at a table\r\n    uint[] openOrders;\r\n    // Orders specific to a customer\r\n    mapping (address => uint[]) custOpenOrders;\r\n\r\n    // Tracking of owners, cooks and waiters\r\n    mapping (address => bool) owners;\r\n    mapping (address => bool) cooks;\r\n    mapping (address => bool) waiters;\r\n\r\n    // Menu stuct for holding items as cost\r\n    struct Menu {\r\n        string name;\r\n        uint cost;\r\n    }\r\n    Menu[] menu;\r\n\r\n    // Tracks the flow of orders as they progress\r\n    enum State { ordered, accpeted, cooking, ready, delivered }\r\n\r\n    // Holds all info of an order\r\n    // menuChoices is 2d array for item number and quantity\r\n    struct Order {\r\n        address customer;\r\n        uint tableID;\r\n        uint[2][3] menuChoices;\r\n        uint custRelID;\r\n        uint openRelID;\r\n        State state;\r\n    }\r\n    Order[] orders;\r\n\r\n    /* Modifiers */    \r\n    // Checks if the sender is an owner, cook, waiter or customer\r\n    // *The contractor is ALWAYS the owner, cannot be demoted*  \r\n    modifier isOwner(){\r\n        require(owners[msg.sender] == true || (msg.sender == owner), \"Only an owner can modify this\");\r\n        _;\r\n    }\r\n    modifier isCook(){\r\n        require(cooks[msg.sender] == true, \"Only cooks can modify this\");\r\n        _;\r\n    }\r\n    modifier isWaiter(){\r\n        require(waiters[msg.sender] == true, \"Only an waiters can modify this\");\r\n        _;\r\n    }\r\n    modifier isCustomer(){\r\n        require(custOpenOrders[msg.sender].length != 0, \"No open orders found\");\r\n        _;\r\n    }\r\n    \r\n    /* Initialize Contract */\r\n    constructor() public {\r\n        // Give initial control to contract owner\r\n        // Owner starts with all roles\r\n        owners[msg.sender] = true;\r\n        cooks[msg.sender] = true;\r\n        waiters[msg.sender] = true;\r\n        owner = msg.sender; // Backdoor in case you delete yourself\r\n\r\n        // Set up the menu\r\n        menu.push(Menu(\"Sandwich\",1));\r\n        menu.push(Menu(\"Taco\", 3));\r\n        menu.push(Menu(\"Chicken\",2));\r\n    }   \r\n\r\n    /// @notice Tells you how many items are on the menu\r\n    /// @return count of menu items\r\n    function getMenuLength() public view returns (uint){\r\n        return (menu.length);\r\n    }\r\n\r\n    /// @notice Get menu item info based on thier index (starting from 0)\r\n    /// @dev Look up by index rather than loops is more economical\r\n    /// @param index The index of the menu item to look up\r\n    /// @return name of item at the index requested\r\n    /// @return cost of the item at index requested\r\n    function getMenu(uint index) public view returns(string memory, uint) {\r\n        return (menu[index].name, menu[index].cost);   \r\n    }\r\n    \r\n    /// @notice Submit order with tablie ID and quantity of each item requested. Payable\r\n    /// @dev The order will be checked to ensure that that correct ammount has been paid\r\n    /// @param tableID The ID of the Table, where the food should be sent\r\n    /// @param qty0 How many orders of food from menu index 0\r\n    /// @param qty1 How many orders of food from menu index 1\r\n    /// @param qty2 How many orders of food from menu index 2\r\n    /// @return orderID The ID of the order placed\r\n    function customerSubmitOrder(uint table, uint qty0, uint qty1, uint qty2) \r\n        public payable returns(uint orderID){\r\n\r\n        // Prep info to be stored into order[x].memuChoices\r\n        uint[2][3] memory choices;\r\n        choices[0] = [0,qty0];\r\n        choices[1] = [1,qty1];\r\n        choices[2] = [2,qty2];\r\n\r\n        uint _cost;\r\n        _cost = choices[0][1] * menu[0].cost;\r\n        _cost += choices[1][1] * menu[1].cost;\r\n        _cost += choices[2][1] * menu[2].cost;\r\n\r\n        require(_cost <= msg.value, \"Paid too much.\");\r\n        require(_cost >= msg.value, \"Paid too little.\");\r\n\r\n        // Add a reference to the customer relative ID \r\n        uint _custRelID = custOpenOrders[msg.sender].length;\r\n\r\n        // Length - 1; might resut in buffer underflow. Check for 0 value first, then decriment\r\n        if (_custRelID != 0){_custRelID--;}\r\n        uint _openRelID = openOrders.length;\r\n        if (_openRelID != 0){_openRelID--;}\r\n\r\n        // Create records in all 3 variables\r\n        orderID = orders.push(Order(msg.sender,table,choices,_custRelID,_openRelID,State.ordered)) - 1;\r\n        openOrders.push(orderID);\r\n        custOpenOrders[msg.sender].push(orderID);\r\n    }\r\n\r\n    /// @notice Returns the absolute global orderID and quantity of orders on record for this customer\r\n    /// @dev Maps customer relative ID to global ID\r\n    /// @param relativeID The customer relative order ID starting from 0\r\n    /// @return ID The global order ID\r\n    /// @return qty The number of orders that the customer has under thier address\r\n    function customerGetOpenOrders(uint relativeID) public view isCustomer returns(uint ID, uint qty){\r\n        return(custOpenOrders[msg.sender][relativeID], custOpenOrders[msg.sender].length);\r\n    }\r\n    \r\n    /// @notice Updates the status of an order from Ordered to Approved\r\n    /// @param orderID The order ID to be changed to Approved\r\n    /// @return success true if the order change succeeded \r\n    function waiterApprove(uint orderID) public isWaiter {\r\n        require(orderID < orders.length, \"ID is invalid.\");\r\n        require(orders[orderID].state == State.ordered, \"This order is not in the ordered state\");\r\n        orders[orderID].state = State.accpeted;\r\n    }\r\n    \r\n    /// @notice Updates the status of an order from Approved to Cooking\r\n    /// @param orderID The order ID to be changed to Cooking\r\n    /// @return success true if the order change succeeded \r\n    function cookStart(uint orderID) public isCook {\r\n        require(orderID < orders.length, \"ID is invalid.\");\r\n        require(orders[orderID].state == State.accpeted, \"This order is not in the ordered state\");\r\n        orders[orderID].state = State.cooking;\r\n    }\r\n    \r\n    /// @notice Updates the status of an order from Cooking to Ready\r\n    /// @param orderID The order ID to be changed to Ready\r\n    /// @return success true if the order change succeeded \r\n    function cookFinish(uint orderID) public isCook {\r\n        require(orderID < orders.length, \"ID is invalid.\");\r\n        require(orders[orderID].state == State.cooking, \"This order is not in the ordered state\");\r\n        orders[orderID].state = State.ready;\r\n    }\r\n    \r\n    /// @notice Updates the status of an order from Ready to delivered\r\n    /// @param orderID The order ID to be changed to Ready\r\n    /// @return success true if the order change succeeded \r\n    function waiterDeliver(uint orderID) public isWaiter {\r\n        require(orderID < orders.length, \"ID is invalid.\");\r\n        require(orders[orderID].state == State.ready, \"This order is not in the ordered state.\");\r\n        orders[orderID].state = State.delivered;\r\n\r\n        // Clean up custOpenOrders state variable\r\n        address _customer = orders[orderID].customer;\r\n        uint _custRelID = orders[orderID].custRelID;\r\n        uint _custLastOrder = custOpenOrders[_customer].length - 1;\r\n        // Check to see if the relID is the last in the array\r\n        if (_custLastOrder != _custRelID){\r\n            // If not, then copy the last item overwriting the one being deleted\r\n            custOpenOrders[_customer][_custRelID] = custOpenOrders[_customer][_custRelID];            \r\n            // Get absolute order ID of the moved item\r\n            uint _absOrderID = custOpenOrders[_customer][_custRelID];\r\n            // Adjust the info in order state variable\r\n            orders[_absOrderID].custRelID = _custRelID;\r\n        }\r\n        // Shrink the array clearing moved ID or said relID\r\n        custOpenOrders[_customer].length--;\r\n\r\n        // Clean up openOrders state variable\r\n        uint _openRelID = orders[orderID].openRelID;\r\n        uint _openLastOrder = openOrders.length - 1;\r\n        // Check to see if the relID is the last in the array\r\n        if (_openRelID != _openLastOrder){\r\n            // If not, then copy the last item overwriting the one being deleted\r\n            openOrders[_openRelID] = openOrders[_openLastOrder];            \r\n        }\r\n        // Shrink the array clearing moved ID or said relID\r\n        openOrders.length--;\r\n    }\r\n\r\n    /// @notice Tells you the state of an odrer 0:Ordered 1:Approved 2:Cooking 3:Ready 4:Delivered\r\n    /// @param orderID The ID of the order that is being looked up\r\n    /// @return state The state of the order. 0:Ordered 1:Approved 2:Cooking 3:Ready 4:Delivered\r\n    function getOrderStatus(uint orderID) public view isCustomer returns(uint state){\r\n        require(orderID < orders.length, \"ID is invalid.\");\r\n        return(uint(orders[orderID].state));\r\n    }\r\n\r\n    /// @notice Tells you the state of an odrer 0:Ordered 1:Approved 2:Cooking 3:Ready 4:Delivered\r\n    /// @param orderID The ID of the order that is being looked up\r\n    /// @return state The state of the order. 0:Ordered 1:Approved 2:Cooking 3:Ready 4:Delivered\r\n    function getOpenOrders(uint relIndex) public view returns (uint ID, uint qty){\r\n        require(relIndex < openOrders.length, \"ID is invalid.\");\r\n        return(openOrders[relIndex],openOrders.length);\r\n    }\r\n\r\n    /// @notice Adds the role of Owner to the specified address\r\n    /// @param ownerAddress The address of the new Owner\r\n    /// @return success true if the address was promoted to the new role \r\n    function  addOwner(address ownerAddress) public isOwner returns (bool){\r\n        owners[ownerAddress] = true;\r\n        return(true);\r\n    }\r\n    /// @notice Adds the role of Waiter to the specified address\r\n    /// @param addWaiter The address of the new Waiter\r\n    /// @return success true if the address was promoted to the new role \r\n    function  addWaiter(address waiterAddress) public returns (bool success){\r\n        waiters[waiterAddress] = true;\r\n        return(true);\r\n    }\r\n    /// @notice Adds the role of Cook to the specified address\r\n    /// @param addCook The address of the new Cook\r\n    /// @return success true if the address was promoted to the new role \r\n    function  addCook(address cookAddress) public returns (bool success){\r\n        cooks[cookAddress] = true;\r\n        return(true);\r\n    }\r\n    /// @notice Removes the role of Owner to the specified address\r\n    /// @param ownerAddress The address of the Owner to be removed\r\n    /// @return success true if the address was removed from the role \r\n    function  removeOwner(address ownerAddress) public returns (bool success){\r\n        owners[ownerAddress] = false;\r\n        return(true);\r\n    }\r\n    /// @notice Removes the role of Waiter to the specified address\r\n    /// @param waiterAddress The address of the Waiter to be removed\r\n    /// @return success true if the address was removed from the role \r\n    function  removeWaiter(address waiterAddress) public returns (bool success){\r\n        waiters[waiterAddress] = false;\r\n        return(true);\r\n    }\r\n    /// @notice Removes the role of Cook to the specified address\r\n    /// @param cookAddress The address of the Cook to be removed\r\n    /// @return success true if the address was removed from the role \r\n    function  removeCook(address cookAddress) public returns (bool success){\r\n        cooks[cookAddress] = false;\r\n        return(true);\r\n    }\r\n\r\n    /// @notice Checks to see if the requested address is a waiter\r\n    /// @param queryAddress The address that you want to confirm\r\n    /// @return success true if address is a member of waiters\r\n    function  getWaiter(address queryAddress) public view returns (bool success){\r\n        return(waiters[queryAddress]);\r\n    }\r\n\r\n    /// @notice Checks to see if the requested address is a cook\r\n    /// @param queryAddress The address that you want to confirm\r\n    /// @return success true if address is a member of cooks\r\n    function  getCook(address queryAddress) public view returns (bool success){\r\n        return(cooks[queryAddress]);\r\n    }\r\n\r\n    /// @notice Checks to see if the requested address is an owner\r\n    /// @param queryAddress The address that you want to confirm\r\n    /// @return success true if address is a member of owners\r\n    function  getOwner(address queryAddress) public view returns (bool success){\r\n        return(owners[queryAddress]);\r\n    }\r\n\r\n    /// @notice Checks to see if the requested address is a waiter\r\n    /// @param queryAddress The address that you want to confirm\r\n    /// @return success true if address is a member of waiters\r\n    function withdraw(uint withdrawAmount) public isOwner {\r\n        require (address(this).balance >= withdrawAmount, \"Requested more money tha the contract has.\");\r\n        msg.sender.transfer(withdrawAmount);\r\n    }\r\n\r\n    /// @notice Fallback function\r\n    /// @dev No params nor returns. This is here just in case no functions are called\r\n    function () external payable{}\r\n\r\n\r\n} // End contract",
  "sourcePath": "/media/sf_GitHub/BiteChain/contracts/BiteChain.sol",
  "compiler": {
    "name": "solc",
    "version": "0.5.0+commit.1d4f565a.Emscripten.clang"
  },
  "schemaVersion": "3.0.1",
  "updatedAt": "2019-01-19T18:31:51.799Z",
  "devdoc": {
    "details": "All function calls are currently implement without side effects",
    "methods": {
      "addCook(address)": {
        "return": "success true if the address was promoted to the new role "
      },
      "addOwner(address)": {
        "return": "success true if the address was promoted to the new role "
      },
      "addWaiter(address)": {
        "return": "success true if the address was promoted to the new role "
      },
      "cookFinish(uint256)": {
        "return": "success true if the order change succeeded "
      },
      "cookStart(uint256)": {
        "return": "success true if the order change succeeded "
      },
      "customerGetOpenOrders(uint256)": {
        "return": "qty The number of orders that the customer has under thier address"
      },
      "customerSubmitOrder(uint256,uint256,uint256,uint256)": {
        "return": "orderID The ID of the order placed"
      },
      "getCook(address)": {
        "return": "success true if address is a member of cooks"
      },
      "getMenu(uint256)": {
        "return": "cost of the item at index requested"
      },
      "getMenuLength()": {
        "return": "count of menu items"
      },
      "getOpenOrders(uint256)": {
        "return": "state The state of the order. 0:Ordered 1:Approved 2:Cooking 3:Ready 4:Delivered"
      },
      "getOrderStatus(uint256)": {
        "return": "state The state of the order. 0:Ordered 1:Approved 2:Cooking 3:Ready 4:Delivered"
      },
      "getOwner(address)": {
        "return": "success true if address is a member of owners"
      },
      "getWaiter(address)": {
        "return": "success true if address is a member of waiters"
      },
      "removeCook(address)": {
        "return": "success true if the address was removed from the role "
      },
      "removeOwner(address)": {
        "return": "success true if the address was removed from the role "
      },
      "removeWaiter(address)": {
        "return": "success true if the address was removed from the role "
      },
      "waiterApprove(uint256)": {
        "return": "success true if the order change succeeded "
      },
      "waiterDeliver(uint256)": {
        "return": "success true if the order change succeeded "
      },
      "withdraw(uint256)": {
        "return": "success true if address is a member of waiters"
      }
    }
  },
  "userdoc": {
    "methods": {}
  }
}